{
  "contractName": "Event",
  "abi": [
    {
      "inputs": [],
      "payable": false,
      "stateMutability": "nonpayable",
      "type": "constructor"
    },
    {
      "anonymous": false,
      "inputs": [
        {
          "indexed": false,
          "internalType": "address",
          "name": "_owner",
          "type": "address"
        },
        {
          "indexed": false,
          "internalType": "uint256",
          "name": "_event_id",
          "type": "uint256"
        }
      ],
      "name": "Create",
      "type": "event"
    },
    {
      "constant": true,
      "inputs": [],
      "name": "approveId",
      "outputs": [
        {
          "internalType": "uint256",
          "name": "",
          "type": "uint256"
        }
      ],
      "payable": false,
      "stateMutability": "view",
      "type": "function"
    },
    {
      "constant": true,
      "inputs": [
        {
          "internalType": "address",
          "name": "",
          "type": "address"
        }
      ],
      "name": "approves",
      "outputs": [
        {
          "internalType": "bool",
          "name": "",
          "type": "bool"
        }
      ],
      "payable": false,
      "stateMutability": "view",
      "type": "function"
    },
    {
      "constant": true,
      "inputs": [],
      "name": "eventContractOwner",
      "outputs": [
        {
          "internalType": "address",
          "name": "",
          "type": "address"
        }
      ],
      "payable": false,
      "stateMutability": "view",
      "type": "function"
    },
    {
      "constant": true,
      "inputs": [],
      "name": "eventId",
      "outputs": [
        {
          "internalType": "uint256",
          "name": "",
          "type": "uint256"
        }
      ],
      "payable": false,
      "stateMutability": "view",
      "type": "function"
    },
    {
      "constant": true,
      "inputs": [
        {
          "internalType": "uint256",
          "name": "",
          "type": "uint256"
        }
      ],
      "name": "eventOwner",
      "outputs": [
        {
          "internalType": "address",
          "name": "",
          "type": "address"
        }
      ],
      "payable": false,
      "stateMutability": "view",
      "type": "function"
    },
    {
      "constant": true,
      "inputs": [
        {
          "internalType": "uint256",
          "name": "",
          "type": "uint256"
        }
      ],
      "name": "events",
      "outputs": [
        {
          "internalType": "address",
          "name": "owner",
          "type": "address"
        },
        {
          "internalType": "uint256",
          "name": "event_id",
          "type": "uint256"
        }
      ],
      "payable": false,
      "stateMutability": "view",
      "type": "function"
    },
    {
      "constant": true,
      "inputs": [],
      "name": "getEventContractOwner",
      "outputs": [
        {
          "internalType": "address",
          "name": "",
          "type": "address"
        }
      ],
      "payable": false,
      "stateMutability": "view",
      "type": "function"
    },
    {
      "constant": false,
      "inputs": [
        {
          "internalType": "address",
          "name": "_approve",
          "type": "address"
        }
      ],
      "name": "addApproval",
      "outputs": [],
      "payable": false,
      "stateMutability": "nonpayable",
      "type": "function"
    },
    {
      "constant": true,
      "inputs": [
        {
          "internalType": "address",
          "name": "_approve",
          "type": "address"
        }
      ],
      "name": "isApproval",
      "outputs": [
        {
          "internalType": "bool",
          "name": "",
          "type": "bool"
        }
      ],
      "payable": false,
      "stateMutability": "view",
      "type": "function"
    },
    {
      "constant": false,
      "inputs": [
        {
          "internalType": "address",
          "name": "_approve",
          "type": "address"
        }
      ],
      "name": "removeApproval",
      "outputs": [],
      "payable": false,
      "stateMutability": "nonpayable",
      "type": "function"
    },
    {
      "constant": true,
      "inputs": [
        {
          "internalType": "uint256",
          "name": "_eventId",
          "type": "uint256"
        }
      ],
      "name": "getEventOwner",
      "outputs": [
        {
          "internalType": "address",
          "name": "",
          "type": "address"
        }
      ],
      "payable": false,
      "stateMutability": "view",
      "type": "function"
    },
    {
      "constant": true,
      "inputs": [],
      "name": "getEventId",
      "outputs": [
        {
          "internalType": "uint256",
          "name": "",
          "type": "uint256"
        }
      ],
      "payable": false,
      "stateMutability": "view",
      "type": "function"
    },
    {
      "constant": true,
      "inputs": [
        {
          "internalType": "uint256",
          "name": "_eventId",
          "type": "uint256"
        }
      ],
      "name": "getEvent",
      "outputs": [
        {
          "internalType": "uint256",
          "name": "",
          "type": "uint256"
        }
      ],
      "payable": false,
      "stateMutability": "view",
      "type": "function"
    },
    {
      "constant": true,
      "inputs": [],
      "name": "getApproveId",
      "outputs": [
        {
          "internalType": "uint256",
          "name": "",
          "type": "uint256"
        }
      ],
      "payable": false,
      "stateMutability": "view",
      "type": "function"
    },
    {
      "constant": false,
      "inputs": [
        {
          "internalType": "address",
          "name": "_owner",
          "type": "address"
        },
        {
          "internalType": "uint256",
          "name": "_event_id",
          "type": "uint256"
        }
      ],
      "name": "createEvent",
      "outputs": [],
      "payable": false,
      "stateMutability": "nonpayable",
      "type": "function"
    },
    {
      "constant": true,
      "inputs": [
        {
          "internalType": "address",
          "name": "_owner",
          "type": "address"
        }
      ],
      "name": "eventOwnerBalanceOf",
      "outputs": [
        {
          "internalType": "uint256",
          "name": "",
          "type": "uint256"
        }
      ],
      "payable": false,
      "stateMutability": "view",
      "type": "function"
    }
  ],
  "bytecode": "0x60806040526000600255600060035534801561001a57600080fd5b5033600460006101000a81548173ffffffffffffffffffffffffffffffffffffffff021916908373ffffffffffffffffffffffffffffffffffffffff160217905550610cca8061006b6000396000f3fe608060405234801561001057600080fd5b50600436106101005760003560e01c80637cab5e8c11610097578063cb44211e11610066578063cb44211e14610424578063d37f4acf14610468578063f39346f3146104c4578063fe210f691461051c57610100565b80637cab5e8c146102de5780638a62462e14610322578063b4d59d271461036c578063c13cf59a146103da57610100565b8063331b2763116100d3578063331b2763146101d45780634a17bbde1461023057806365e8d7de1461024e5780636d1884e01461029c57610100565b8063089cdd0c146101055780630b7914301461012357806319717d5414610198578063323c635a146101b6575b600080fd5b61010d61058a565b6040518082815260200191505060405180910390f35b61014f6004803603602081101561013957600080fd5b8101908080359060200190929190505050610590565b604051808373ffffffffffffffffffffffffffffffffffffffff1673ffffffffffffffffffffffffffffffffffffffff1681526020018281526020019250505060405180910390f35b6101a06105d4565b6040518082815260200191505060405180910390f35b6101be6105da565b6040518082815260200191505060405180910390f35b610216600480360360208110156101ea57600080fd5b81019080803573ffffffffffffffffffffffffffffffffffffffff1690602001909291905050506105e4565b604051808215151515815260200191505060405180910390f35b61023861063a565b6040518082815260200191505060405180910390f35b61029a6004803603604081101561026457600080fd5b81019080803573ffffffffffffffffffffffffffffffffffffffff16906020019092919080359060200190929190505050610644565b005b6102c8600480360360208110156102b257600080fd5b81019080803590602001909291905050506107e9565b6040518082815260200191505060405180910390f35b610320600480360360208110156102f457600080fd5b81019080803573ffffffffffffffffffffffffffffffffffffffff169060200190929190505050610808565b005b61032a610926565b604051808273ffffffffffffffffffffffffffffffffffffffff1673ffffffffffffffffffffffffffffffffffffffff16815260200191505060405180910390f35b6103986004803603602081101561038257600080fd5b8101908080359060200190929190505050610950565b604051808273ffffffffffffffffffffffffffffffffffffffff1673ffffffffffffffffffffffffffffffffffffffff16815260200191505060405180910390f35b6103e2610983565b604051808273ffffffffffffffffffffffffffffffffffffffff1673ffffffffffffffffffffffffffffffffffffffff16815260200191505060405180910390f35b6104666004803603602081101561043a57600080fd5b81019080803573ffffffffffffffffffffffffffffffffffffffff1690602001909291905050506109a9565b005b6104aa6004803603602081101561047e57600080fd5b81019080803573ffffffffffffffffffffffffffffffffffffffff169060200190929190505050610ace565b604051808215151515815260200191505060405180910390f35b610506600480360360208110156104da57600080fd5b81019080803573ffffffffffffffffffffffffffffffffffffffff169060200190929190505050610aee565b6040518082815260200191505060405180910390f35b6105486004803603602081101561053257600080fd5b8101908080359060200190929190505050610be5565b604051808273ffffffffffffffffffffffffffffffffffffffff1673ffffffffffffffffffffffffffffffffffffffff16815260200191505060405180910390f35b60025481565b60006020528060005260406000206000915090508060000160009054906101000a900473ffffffffffffffffffffffffffffffffffffffff16908060010154905082565b60035481565b6000600354905090565b6000600160008373ffffffffffffffffffffffffffffffffffffffff1673ffffffffffffffffffffffffffffffffffffffff16815260200190815260200160002060009054906101000a900460ff169050919050565b6000600254905090565b60405180604001604052808373ffffffffffffffffffffffffffffffffffffffff16815260200182815250600080600254815260200190815260200160002060008201518160000160006101000a81548173ffffffffffffffffffffffffffffffffffffffff021916908373ffffffffffffffffffffffffffffffffffffffff160217905550602082015181600101559050508160056000600254815260200190815260200160002060006101000a81548173ffffffffffffffffffffffffffffffffffffffff021916908373ffffffffffffffffffffffffffffffffffffffff160217905550610772600660008473ffffffffffffffffffffffffffffffffffffffff1673ffffffffffffffffffffffffffffffffffffffff168152602001908152602001600020610c22565b61077a610c38565b7fcc9018de05b5f497ee7618d8830568d8ac2d45d0671b73d8f71c67e824122ec78282604051808373ffffffffffffffffffffffffffffffffffffffff1673ffffffffffffffffffffffffffffffffffffffff1681526020018281526020019250505060405180910390a15050565b6000806000838152602001908152602001600020600101549050919050565b3373ffffffffffffffffffffffffffffffffffffffff16600460009054906101000a900473ffffffffffffffffffffffffffffffffffffffff1673ffffffffffffffffffffffffffffffffffffffff16146108cb576040517f08c379a00000000000000000000000000000000000000000000000000000000081526004018080602001828103825260158152602001807f73656e646572206973206e6f742061206f776e6572000000000000000000000081525060200191505060405180910390fd5b6000600160008373ffffffffffffffffffffffffffffffffffffffff1673ffffffffffffffffffffffffffffffffffffffff16815260200190815260200160002060006101000a81548160ff02191690831515021790555050565b6000600460009054906101000a900473ffffffffffffffffffffffffffffffffffffffff16905090565b60056020528060005260406000206000915054906101000a900473ffffffffffffffffffffffffffffffffffffffff1681565b600460009054906101000a900473ffffffffffffffffffffffffffffffffffffffff1681565b3373ffffffffffffffffffffffffffffffffffffffff16600460009054906101000a900473ffffffffffffffffffffffffffffffffffffffff1673ffffffffffffffffffffffffffffffffffffffff1614610a6c576040517f08c379a00000000000000000000000000000000000000000000000000000000081526004018080602001828103825260158152602001807f73656e646572206973206e6f742061206f776e6572000000000000000000000081525060200191505060405180910390fd5b60018060008373ffffffffffffffffffffffffffffffffffffffff1673ffffffffffffffffffffffffffffffffffffffff16815260200190815260200160002060006101000a81548160ff021916908315150217905550610acb610c4b565b50565b60016020528060005260406000206000915054906101000a900460ff1681565b60008073ffffffffffffffffffffffffffffffffffffffff16600460009054906101000a900473ffffffffffffffffffffffffffffffffffffffff1673ffffffffffffffffffffffffffffffffffffffff161415610b97576040517f08c379a0000000000000000000000000000000000000000000000000000000008152600401808060200182810382526029815260200180610c6d6029913960400191505060405180910390fd5b610bde600660008473ffffffffffffffffffffffffffffffffffffffff1673ffffffffffffffffffffffffffffffffffffffff168152602001908152602001600020610c5e565b9050919050565b60006005600083815260200190815260200160002060009054906101000a900473ffffffffffffffffffffffffffffffffffffffff169050919050565b6001816000016000828254019250508190555050565b6001600260008282540192505081905550565b6001600360008282540192505081905550565b60008160000154905091905056fe4576656e743a2062616c616e636520717565727920666f7220746865207a65726f2061646472657373a265627a7a72315820e7a34c81083cc1d20d4115b2107595a6ca8779601d9df8b8ccffd864811919bd64736f6c63430005100032",
  "source": "pragma solidity ^0.5.16;\nimport {Counters} from \"./ERC721Full.sol\";\n\n\n\ncontract Event {\n  using Counters for Counters.Counter;\n  mapping(uint => Event) public events;\n  mapping(address => bool) public approves;\n  // mapping(string => bool) _ticketExists;\n  uint256 public eventId = 0;\n  uint256 public approveId = 0;\n  address public eventContractOwner;\n  mapping(uint => address) public eventOwner;\n\n  mapping (address => Counters.Counter) private _ownedEventsCount;\n\n  constructor() public {\n    eventContractOwner = msg.sender;\n  }\n\n  struct Event {\n    address owner;\n    uint256 event_id;\n  }\n\n  event Create(address _owner, uint _event_id);\n\n  modifier onlyOwner() {\n    require(eventContractOwner == msg.sender, 'sender is not a owner');\n    _;\n  }\n\n  modifier onlyApprove() {\n    require(approves[msg.sender] || eventContractOwner == msg.sender, 'sender is not approved');\n    _;\n  }\n\n  function getEventContractOwner() public view returns(address) {\n    return eventContractOwner;\n  }\n\n  function _incrementEvent() internal {\n    eventId += 1;\n  }\n\n  function _incrementApprove() internal {\n    approveId += 1;\n  }\n\n  function addApproval(address _approve) public onlyOwner {\n    approves[_approve] = true;\n    _incrementApprove();\n  }\n\n  function isApproval(address _approve) public view returns(bool) {\n    return approves[_approve];\n  }\n\n  function removeApproval(address _approve) public onlyOwner {\n    approves[_approve] = false;\n  }\n\n  function getEventOwner(uint _eventId) public view returns(address) {\n    return eventOwner[_eventId];\n  }\n\n  function getEventId() public view returns (uint256) {\n    return eventId;\n  }\n\n  function getEvent(uint _eventId) public view returns (uint256) {\n    return events[_eventId].event_id;\n  }\n\n  function getApproveId() public view returns (uint256) {\n    return approveId;\n  }\n\n  function createEvent(address _owner, uint256 _event_id) public  {\n    events[eventId] = Event(_owner, _event_id);\n    eventOwner[eventId] = _owner;\n    _ownedEventsCount[_owner].increment();\n    _incrementEvent();\n    emit Create(_owner, _event_id);\n  }\n\n  function eventOwnerBalanceOf(address _owner) public view returns (uint256) {\n  require(eventContractOwner != address(0), \"Event: balance query for the zero address\");\n      return _ownedEventsCount[_owner].current();\n  }\n\n\n}",
  "sourcePath": "/Users/timcheng/personal/fyp/smart-ticket-api/src/admin/client/src/smart-contract/contracts/Event.sol",
  "compiler": {
    "name": "solc",
    "version": "0.5.16+commit.9c3226ce.Emscripten.clang"
  },
  "schemaVersion": "3.3.2",
  "updatedAt": "2021-04-10T20:06:37.972Z",
  "networkType": "ethereum",
  "devdoc": {
    "methods": {}
  },
  "userdoc": {
    "methods": {}
  }
}