{
  "contractName": "Event",
  "abi": [
    {
      "inputs": [],
      "payable": false,
      "stateMutability": "nonpayable",
      "type": "constructor"
    },
    {
      "anonymous": false,
      "inputs": [
        {
          "indexed": false,
          "internalType": "address",
          "name": "_owner",
          "type": "address"
        },
        {
          "indexed": false,
          "internalType": "uint256",
          "name": "_event_id",
          "type": "uint256"
        },
        {
          "indexed": false,
          "internalType": "string",
          "name": "_hash_key",
          "type": "string"
        }
      ],
      "name": "Create",
      "type": "event"
    },
    {
      "constant": true,
      "inputs": [],
      "name": "approveId",
      "outputs": [
        {
          "internalType": "uint256",
          "name": "",
          "type": "uint256"
        }
      ],
      "payable": false,
      "stateMutability": "view",
      "type": "function"
    },
    {
      "constant": true,
      "inputs": [
        {
          "internalType": "address",
          "name": "",
          "type": "address"
        }
      ],
      "name": "approves",
      "outputs": [
        {
          "internalType": "bool",
          "name": "",
          "type": "bool"
        }
      ],
      "payable": false,
      "stateMutability": "view",
      "type": "function"
    },
    {
      "constant": true,
      "inputs": [],
      "name": "eventContractOwner",
      "outputs": [
        {
          "internalType": "address",
          "name": "",
          "type": "address"
        }
      ],
      "payable": false,
      "stateMutability": "view",
      "type": "function"
    },
    {
      "constant": true,
      "inputs": [],
      "name": "eventId",
      "outputs": [
        {
          "internalType": "uint256",
          "name": "",
          "type": "uint256"
        }
      ],
      "payable": false,
      "stateMutability": "view",
      "type": "function"
    },
    {
      "constant": true,
      "inputs": [
        {
          "internalType": "uint256",
          "name": "",
          "type": "uint256"
        }
      ],
      "name": "eventOwner",
      "outputs": [
        {
          "internalType": "address",
          "name": "",
          "type": "address"
        }
      ],
      "payable": false,
      "stateMutability": "view",
      "type": "function"
    },
    {
      "constant": true,
      "inputs": [
        {
          "internalType": "uint256",
          "name": "",
          "type": "uint256"
        }
      ],
      "name": "events",
      "outputs": [
        {
          "internalType": "address",
          "name": "owner",
          "type": "address"
        },
        {
          "internalType": "uint256",
          "name": "event_id",
          "type": "uint256"
        },
        {
          "internalType": "string",
          "name": "hash_key",
          "type": "string"
        }
      ],
      "payable": false,
      "stateMutability": "view",
      "type": "function"
    },
    {
      "constant": true,
      "inputs": [],
      "name": "getEventContractOwner",
      "outputs": [
        {
          "internalType": "address",
          "name": "",
          "type": "address"
        }
      ],
      "payable": false,
      "stateMutability": "view",
      "type": "function"
    },
    {
      "constant": false,
      "inputs": [
        {
          "internalType": "address",
          "name": "_approve",
          "type": "address"
        }
      ],
      "name": "addApproval",
      "outputs": [],
      "payable": false,
      "stateMutability": "nonpayable",
      "type": "function"
    },
    {
      "constant": true,
      "inputs": [
        {
          "internalType": "address",
          "name": "_approve",
          "type": "address"
        }
      ],
      "name": "isApproval",
      "outputs": [
        {
          "internalType": "bool",
          "name": "",
          "type": "bool"
        }
      ],
      "payable": false,
      "stateMutability": "view",
      "type": "function"
    },
    {
      "constant": false,
      "inputs": [
        {
          "internalType": "address",
          "name": "_approve",
          "type": "address"
        }
      ],
      "name": "removeApproval",
      "outputs": [],
      "payable": false,
      "stateMutability": "nonpayable",
      "type": "function"
    },
    {
      "constant": true,
      "inputs": [
        {
          "internalType": "uint256",
          "name": "_eventId",
          "type": "uint256"
        }
      ],
      "name": "getEventOwner",
      "outputs": [
        {
          "internalType": "address",
          "name": "",
          "type": "address"
        }
      ],
      "payable": false,
      "stateMutability": "view",
      "type": "function"
    },
    {
      "constant": true,
      "inputs": [],
      "name": "getEventId",
      "outputs": [
        {
          "internalType": "uint256",
          "name": "",
          "type": "uint256"
        }
      ],
      "payable": false,
      "stateMutability": "view",
      "type": "function"
    },
    {
      "constant": true,
      "inputs": [
        {
          "internalType": "uint256",
          "name": "_eventId",
          "type": "uint256"
        }
      ],
      "name": "getEvent",
      "outputs": [
        {
          "internalType": "uint256",
          "name": "",
          "type": "uint256"
        }
      ],
      "payable": false,
      "stateMutability": "view",
      "type": "function"
    },
    {
      "constant": true,
      "inputs": [],
      "name": "getApproveId",
      "outputs": [
        {
          "internalType": "uint256",
          "name": "",
          "type": "uint256"
        }
      ],
      "payable": false,
      "stateMutability": "view",
      "type": "function"
    },
    {
      "constant": false,
      "inputs": [
        {
          "internalType": "address",
          "name": "_owner",
          "type": "address"
        },
        {
          "internalType": "uint256",
          "name": "_event_id",
          "type": "uint256"
        },
        {
          "internalType": "string",
          "name": "_hash_key",
          "type": "string"
        }
      ],
      "name": "createEvent",
      "outputs": [],
      "payable": false,
      "stateMutability": "nonpayable",
      "type": "function"
    },
    {
      "constant": true,
      "inputs": [
        {
          "internalType": "address",
          "name": "_owner",
          "type": "address"
        }
      ],
      "name": "eventOwnerBalanceOf",
      "outputs": [
        {
          "internalType": "uint256",
          "name": "",
          "type": "uint256"
        }
      ],
      "payable": false,
      "stateMutability": "view",
      "type": "function"
    }
  ],
  "bytecode": "0x60806040526000600255600060035534801561001a57600080fd5b5033600460006101000a81548173ffffffffffffffffffffffffffffffffffffffff021916908373ffffffffffffffffffffffffffffffffffffffff160217905550610fa18061006b6000396000f3fe608060405234801561001057600080fd5b50600436106101005760003560e01c80638a62462e11610097578063cb44211e11610066578063cb44211e14610527578063d37f4acf1461056b578063f39346f3146105c7578063fe210f691461061f57610100565b80638a62462e146103405780639d6bc4901461038a578063b4d59d271461046f578063c13cf59a146104dd57610100565b8063331b2763116100d3578063331b2763146102405780634a17bbde1461029c5780636d1884e0146102ba5780637cab5e8c146102fc57610100565b8063089cdd0c146101055780630b7914301461012357806319717d5414610204578063323c635a14610222575b600080fd5b61010d61068d565b6040518082815260200191505060405180910390f35b61014f6004803603602081101561013957600080fd5b8101908080359060200190929190505050610693565b604051808473ffffffffffffffffffffffffffffffffffffffff1673ffffffffffffffffffffffffffffffffffffffff16815260200183815260200180602001828103825283818151815260200191508051906020019080838360005b838110156101c75780820151818401526020810190506101ac565b50505050905090810190601f1680156101f45780820380516001836020036101000a031916815260200191505b5094505050505060405180910390f35b61020c610775565b6040518082815260200191505060405180910390f35b61022a61077b565b6040518082815260200191505060405180910390f35b6102826004803603602081101561025657600080fd5b81019080803573ffffffffffffffffffffffffffffffffffffffff169060200190929190505050610785565b604051808215151515815260200191505060405180910390f35b6102a46107db565b6040518082815260200191505060405180910390f35b6102e6600480360360208110156102d057600080fd5b81019080803590602001909291905050506107e5565b6040518082815260200191505060405180910390f35b61033e6004803603602081101561031257600080fd5b81019080803573ffffffffffffffffffffffffffffffffffffffff169060200190929190505050610804565b005b610348610922565b604051808273ffffffffffffffffffffffffffffffffffffffff1673ffffffffffffffffffffffffffffffffffffffff16815260200191505060405180910390f35b61046d600480360360608110156103a057600080fd5b81019080803573ffffffffffffffffffffffffffffffffffffffff16906020019092919080359060200190929190803590602001906401000000008111156103e757600080fd5b8201836020820111156103f957600080fd5b8035906020019184600183028401116401000000008311171561041b57600080fd5b91908080601f016020809104026020016040519081016040528093929190818152602001838380828437600081840152601f19601f82011690508083019250505050505050919291929050505061094c565b005b61049b6004803603602081101561048557600080fd5b8101908080359060200190929190505050610b82565b604051808273ffffffffffffffffffffffffffffffffffffffff1673ffffffffffffffffffffffffffffffffffffffff16815260200191505060405180910390f35b6104e5610bb5565b604051808273ffffffffffffffffffffffffffffffffffffffff1673ffffffffffffffffffffffffffffffffffffffff16815260200191505060405180910390f35b6105696004803603602081101561053d57600080fd5b81019080803573ffffffffffffffffffffffffffffffffffffffff169060200190929190505050610bdb565b005b6105ad6004803603602081101561058157600080fd5b81019080803573ffffffffffffffffffffffffffffffffffffffff169060200190929190505050610d00565b604051808215151515815260200191505060405180910390f35b610609600480360360208110156105dd57600080fd5b81019080803573ffffffffffffffffffffffffffffffffffffffff169060200190929190505050610d20565b6040518082815260200191505060405180910390f35b61064b6004803603602081101561063557600080fd5b8101908080359060200190929190505050610e17565b604051808273ffffffffffffffffffffffffffffffffffffffff1673ffffffffffffffffffffffffffffffffffffffff16815260200191505060405180910390f35b60025481565b60006020528060005260406000206000915090508060000160009054906101000a900473ffffffffffffffffffffffffffffffffffffffff1690806001015490806002018054600181600116156101000203166002900480601f01602080910402602001604051908101604052809291908181526020018280546001816001161561010002031660029004801561076b5780601f106107405761010080835404028352916020019161076b565b820191906000526020600020905b81548152906001019060200180831161074e57829003601f168201915b5050505050905083565b60035481565b6000600354905090565b6000600160008373ffffffffffffffffffffffffffffffffffffffff1673ffffffffffffffffffffffffffffffffffffffff16815260200190815260200160002060009054906101000a900460ff169050919050565b6000600254905090565b6000806000838152602001908152602001600020600101549050919050565b3373ffffffffffffffffffffffffffffffffffffffff16600460009054906101000a900473ffffffffffffffffffffffffffffffffffffffff1673ffffffffffffffffffffffffffffffffffffffff16146108c7576040517f08c379a00000000000000000000000000000000000000000000000000000000081526004018080602001828103825260158152602001807f73656e646572206973206e6f742061206f776e6572000000000000000000000081525060200191505060405180910390fd5b6000600160008373ffffffffffffffffffffffffffffffffffffffff1673ffffffffffffffffffffffffffffffffffffffff16815260200190815260200160002060006101000a81548160ff02191690831515021790555050565b6000600460009054906101000a900473ffffffffffffffffffffffffffffffffffffffff16905090565b60405180606001604052808473ffffffffffffffffffffffffffffffffffffffff16815260200183815260200182815250600080600254815260200190815260200160002060008201518160000160006101000a81548173ffffffffffffffffffffffffffffffffffffffff021916908373ffffffffffffffffffffffffffffffffffffffff1602179055506020820151816001015560408201518160020190805190602001906109fe929190610e9e565b509050508260056000600254815260200190815260200160002060006101000a81548173ffffffffffffffffffffffffffffffffffffffff021916908373ffffffffffffffffffffffffffffffffffffffff160217905550610a9d600660008573ffffffffffffffffffffffffffffffffffffffff1673ffffffffffffffffffffffffffffffffffffffff168152602001908152602001600020610e54565b610aa5610e6a565b7f06acdc615e0b6df2984444b78654ef89855fead2ca37b1d70464c0e7827590e2838383604051808473ffffffffffffffffffffffffffffffffffffffff1673ffffffffffffffffffffffffffffffffffffffff16815260200183815260200180602001828103825283818151815260200191508051906020019080838360005b83811015610b41578082015181840152602081019050610b26565b50505050905090810190601f168015610b6e5780820380516001836020036101000a031916815260200191505b5094505050505060405180910390a1505050565b60056020528060005260406000206000915054906101000a900473ffffffffffffffffffffffffffffffffffffffff1681565b600460009054906101000a900473ffffffffffffffffffffffffffffffffffffffff1681565b3373ffffffffffffffffffffffffffffffffffffffff16600460009054906101000a900473ffffffffffffffffffffffffffffffffffffffff1673ffffffffffffffffffffffffffffffffffffffff1614610c9e576040517f08c379a00000000000000000000000000000000000000000000000000000000081526004018080602001828103825260158152602001807f73656e646572206973206e6f742061206f776e6572000000000000000000000081525060200191505060405180910390fd5b60018060008373ffffffffffffffffffffffffffffffffffffffff1673ffffffffffffffffffffffffffffffffffffffff16815260200190815260200160002060006101000a81548160ff021916908315150217905550610cfd610e7d565b50565b60016020528060005260406000206000915054906101000a900460ff1681565b60008073ffffffffffffffffffffffffffffffffffffffff16600460009054906101000a900473ffffffffffffffffffffffffffffffffffffffff1673ffffffffffffffffffffffffffffffffffffffff161415610dc9576040517f08c379a0000000000000000000000000000000000000000000000000000000008152600401808060200182810382526029815260200180610f446029913960400191505060405180910390fd5b610e10600660008473ffffffffffffffffffffffffffffffffffffffff1673ffffffffffffffffffffffffffffffffffffffff168152602001908152602001600020610e90565b9050919050565b60006005600083815260200190815260200160002060009054906101000a900473ffffffffffffffffffffffffffffffffffffffff169050919050565b6001816000016000828254019250508190555050565b6001600260008282540192505081905550565b6001600360008282540192505081905550565b600081600001549050919050565b828054600181600116156101000203166002900490600052602060002090601f016020900481019282601f10610edf57805160ff1916838001178555610f0d565b82800160010185558215610f0d579182015b82811115610f0c578251825591602001919060010190610ef1565b5b509050610f1a9190610f1e565b5090565b610f4091905b80821115610f3c576000816000905550600101610f24565b5090565b9056fe4576656e743a2062616c616e636520717565727920666f7220746865207a65726f2061646472657373a265627a7a723158206b75863de8a6dd518b571c127b810b6595afe0e5d75661382209c6e992ab464d64736f6c63430005100032",
  "source": "pragma solidity ^0.5.16;\nimport {Counters} from \"./ERC721Full.sol\";\n\n\n\ncontract Event {\n  using Counters for Counters.Counter;\n  mapping(uint => Event) public events;\n  mapping(address => bool) public approves;\n  // mapping(string => bool) _ticketExists;\n  uint256 public eventId = 0;\n  uint256 public approveId = 0;\n  address public eventContractOwner;\n  mapping(uint => address) public eventOwner;\n\n  mapping (address => Counters.Counter) private _ownedEventsCount;\n\n  constructor() public {\n    eventContractOwner = msg.sender;\n  }\n\n  struct Event {\n    address owner;\n    uint256 event_id;\n    string hash_key;\n  }\n\n  event Create(address _owner, uint _event_id, string _hash_key);\n\n  modifier onlyOwner() {\n    require(eventContractOwner == msg.sender, 'sender is not a owner');\n    _;\n  }\n\n  modifier onlyApprove() {\n    require(approves[msg.sender] || eventContractOwner == msg.sender, 'sender is not approved');\n    _;\n  }\n\n  function getEventContractOwner() public view returns(address) {\n    return eventContractOwner;\n  }\n\n  function _incrementEvent() internal {\n    eventId += 1;\n  }\n\n  function _incrementApprove() internal {\n    approveId += 1;\n  }\n\n  function addApproval(address _approve) public onlyOwner {\n    approves[_approve] = true;\n    _incrementApprove();\n  }\n\n  function isApproval(address _approve) public view returns(bool) {\n    return approves[_approve];\n  }\n\n  function removeApproval(address _approve) public onlyOwner {\n    approves[_approve] = false;\n  }\n\n  function getEventOwner(uint _eventId) public view returns(address) {\n    return eventOwner[_eventId];\n  }\n\n  function getEventId() public view returns (uint256) {\n    return eventId;\n  }\n\n  function getEvent(uint _eventId) public view returns (uint256) {\n    return events[_eventId].event_id;\n  }\n\n  function getApproveId() public view returns (uint256) {\n    return approveId;\n  }\n\n  function createEvent(address _owner, uint256 _event_id, string memory _hash_key) public  {\n    events[eventId] = Event(_owner, _event_id, _hash_key);\n    eventOwner[eventId] = _owner;\n    _ownedEventsCount[_owner].increment();\n    _incrementEvent();\n    emit Create(_owner, _event_id, _hash_key);\n  }\n\n  function eventOwnerBalanceOf(address _owner) public view returns (uint256) {\n  require(eventContractOwner != address(0), \"Event: balance query for the zero address\");\n      return _ownedEventsCount[_owner].current();\n  }\n\n\n}",
  "sourcePath": "/Users/timcheng/personal/fyp/smart-ticket-blockchain/smart-contract/contracts/Event.sol",
  "compiler": {
    "name": "solc",
    "version": "0.5.16+commit.9c3226ce.Emscripten.clang"
  },
  "schemaVersion": "3.3.2",
  "updatedAt": "2021-04-15T13:56:49.067Z",
  "networkType": "ethereum",
  "devdoc": {
    "methods": {}
  },
  "userdoc": {
    "methods": {}
  }
}