{
  "contractName": "Kyc",
  "abi": [
    {
      "inputs": [],
      "payable": false,
      "stateMutability": "nonpayable",
      "type": "constructor"
    },
    {
      "anonymous": false,
      "inputs": [
        {
          "indexed": false,
          "internalType": "uint256",
          "name": "_id",
          "type": "uint256"
        },
        {
          "indexed": false,
          "internalType": "string",
          "name": "_hashValue",
          "type": "string"
        }
      ],
      "name": "Create",
      "type": "event"
    },
    {
      "anonymous": false,
      "inputs": [
        {
          "indexed": false,
          "internalType": "uint256",
          "name": "_id",
          "type": "uint256"
        }
      ],
      "name": "Identity",
      "type": "event"
    },
    {
      "constant": true,
      "inputs": [
        {
          "internalType": "uint256",
          "name": "",
          "type": "uint256"
        }
      ],
      "name": "companies",
      "outputs": [
        {
          "internalType": "string",
          "name": "",
          "type": "string"
        }
      ],
      "payable": false,
      "stateMutability": "view",
      "type": "function"
    },
    {
      "constant": true,
      "inputs": [],
      "name": "companyCount",
      "outputs": [
        {
          "internalType": "uint256",
          "name": "",
          "type": "uint256"
        }
      ],
      "payable": false,
      "stateMutability": "view",
      "type": "function"
    },
    {
      "constant": true,
      "inputs": [],
      "name": "owner",
      "outputs": [
        {
          "internalType": "address",
          "name": "",
          "type": "address"
        }
      ],
      "payable": false,
      "stateMutability": "view",
      "type": "function"
    },
    {
      "constant": true,
      "inputs": [],
      "name": "userCount",
      "outputs": [
        {
          "internalType": "uint256",
          "name": "",
          "type": "uint256"
        }
      ],
      "payable": false,
      "stateMutability": "view",
      "type": "function"
    },
    {
      "constant": true,
      "inputs": [
        {
          "internalType": "uint256",
          "name": "",
          "type": "uint256"
        }
      ],
      "name": "users",
      "outputs": [
        {
          "internalType": "string",
          "name": "",
          "type": "string"
        }
      ],
      "payable": false,
      "stateMutability": "view",
      "type": "function"
    },
    {
      "constant": false,
      "inputs": [
        {
          "internalType": "uint256",
          "name": "_id",
          "type": "uint256"
        },
        {
          "internalType": "string",
          "name": "_hashValue",
          "type": "string"
        }
      ],
      "name": "renewUser",
      "outputs": [],
      "payable": false,
      "stateMutability": "nonpayable",
      "type": "function"
    },
    {
      "constant": false,
      "inputs": [
        {
          "internalType": "uint256",
          "name": "_id",
          "type": "uint256"
        },
        {
          "internalType": "string",
          "name": "_hashValue",
          "type": "string"
        }
      ],
      "name": "renewCompany",
      "outputs": [],
      "payable": false,
      "stateMutability": "nonpayable",
      "type": "function"
    },
    {
      "constant": false,
      "inputs": [
        {
          "internalType": "uint256",
          "name": "_id",
          "type": "uint256"
        }
      ],
      "name": "burnUser",
      "outputs": [],
      "payable": false,
      "stateMutability": "nonpayable",
      "type": "function"
    },
    {
      "constant": false,
      "inputs": [
        {
          "internalType": "uint256",
          "name": "_id",
          "type": "uint256"
        }
      ],
      "name": "burnCompany",
      "outputs": [],
      "payable": false,
      "stateMutability": "nonpayable",
      "type": "function"
    },
    {
      "constant": true,
      "inputs": [
        {
          "internalType": "uint256",
          "name": "_id",
          "type": "uint256"
        }
      ],
      "name": "getUser",
      "outputs": [
        {
          "internalType": "string",
          "name": "",
          "type": "string"
        }
      ],
      "payable": false,
      "stateMutability": "view",
      "type": "function"
    },
    {
      "constant": true,
      "inputs": [
        {
          "internalType": "uint256",
          "name": "_id",
          "type": "uint256"
        }
      ],
      "name": "getCompany",
      "outputs": [
        {
          "internalType": "string",
          "name": "",
          "type": "string"
        }
      ],
      "payable": false,
      "stateMutability": "view",
      "type": "function"
    },
    {
      "constant": true,
      "inputs": [
        {
          "internalType": "uint256",
          "name": "_id",
          "type": "uint256"
        },
        {
          "internalType": "string",
          "name": "_hashHex",
          "type": "string"
        }
      ],
      "name": "verifyUser",
      "outputs": [
        {
          "internalType": "bool",
          "name": "",
          "type": "bool"
        }
      ],
      "payable": false,
      "stateMutability": "view",
      "type": "function"
    },
    {
      "constant": true,
      "inputs": [
        {
          "internalType": "uint256",
          "name": "_id",
          "type": "uint256"
        },
        {
          "internalType": "string",
          "name": "_hashHex",
          "type": "string"
        }
      ],
      "name": "verifyCompany",
      "outputs": [
        {
          "internalType": "bool",
          "name": "",
          "type": "bool"
        }
      ],
      "payable": false,
      "stateMutability": "view",
      "type": "function"
    },
    {
      "constant": true,
      "inputs": [],
      "name": "totalUserCount",
      "outputs": [
        {
          "internalType": "uint256",
          "name": "",
          "type": "uint256"
        }
      ],
      "payable": false,
      "stateMutability": "view",
      "type": "function"
    },
    {
      "constant": true,
      "inputs": [],
      "name": "totalCompanyCount",
      "outputs": [
        {
          "internalType": "uint256",
          "name": "",
          "type": "uint256"
        }
      ],
      "payable": false,
      "stateMutability": "view",
      "type": "function"
    },
    {
      "constant": true,
      "inputs": [
        {
          "internalType": "uint256[]",
          "name": "_ids",
          "type": "uint256[]"
        }
      ],
      "name": "getTotalUser",
      "outputs": [
        {
          "internalType": "string[]",
          "name": "",
          "type": "string[]"
        }
      ],
      "payable": false,
      "stateMutability": "view",
      "type": "function"
    },
    {
      "constant": true,
      "inputs": [
        {
          "internalType": "uint256[]",
          "name": "_ids",
          "type": "uint256[]"
        }
      ],
      "name": "getTotalCompany",
      "outputs": [
        {
          "internalType": "string[]",
          "name": "",
          "type": "string[]"
        }
      ],
      "payable": false,
      "stateMutability": "view",
      "type": "function"
    },
    {
      "constant": false,
      "inputs": [
        {
          "internalType": "uint256",
          "name": "_id",
          "type": "uint256"
        },
        {
          "internalType": "string",
          "name": "_hashValue",
          "type": "string"
        }
      ],
      "name": "validateUser",
      "outputs": [],
      "payable": false,
      "stateMutability": "nonpayable",
      "type": "function"
    },
    {
      "constant": false,
      "inputs": [
        {
          "internalType": "uint256",
          "name": "_id",
          "type": "uint256"
        },
        {
          "internalType": "string",
          "name": "_hashValue",
          "type": "string"
        }
      ],
      "name": "validateCompany",
      "outputs": [],
      "payable": false,
      "stateMutability": "nonpayable",
      "type": "function"
    }
  ],
  "bytecode": "0x60806040526000600255600060035534801561001a57600080fd5b5033600460006101000a81548173ffffffffffffffffffffffffffffffffffffffff021916908373ffffffffffffffffffffffffffffffffffffffff160217905550611b428061006b6000396000f3fe608060405234801561001057600080fd5b50600436106101215760003560e01c80635fafb3b6116100ad5780639d714961116100715780639d7149611461032e578063b0467deb1461034a578063c35e88ef1461037a578063dafc664b14610398578063fb360feb146103c857610121565b80635fafb3b61461028a5780636f3c178e146102ba578063807e6c9a146102d65780638da5cb5b146102f25780638e75dd471461031057610121565b80632813d19d116100f45780632813d19d146101ac578063365b98b2146101dc57806342ef39a31461020c5780634bb86af01461023c57806357d139171461025a57610121565b806307973ccf146101265780631112bdf21461014457806315600af91461017457806326f9cb7f14610190575b600080fd5b61012e6103e4565b60405161013b91906118f0565b60405180910390f35b61015e60048036036101599190810190611552565b6103ea565b60405161016b9190611871565b60405180910390f35b61018e60048036036101899190810190611552565b610454565b005b6101aa60048036036101a59190810190611552565b610546565b005b6101c660048036036101c19190810190611529565b610639565b6040516101d3919061188c565b60405180910390f35b6101f660048036036101f19190810190611529565b6106e9565b604051610203919061188c565b60405180910390f35b610226600480360361022191908101906114e8565b610799565b604051610233919061184f565b60405180910390f35b6102446108d0565b60405161025191906118f0565b60405180910390f35b610274600480360361026f9190810190611529565b61096a565b60405161028191906118ae565b60405180910390f35b6102a4600480360361029f91908101906114e8565b610aaf565b6040516102b1919061184f565b60405180910390f35b6102d460048036036102cf9190810190611529565b610c76565b005b6102f060048036036102eb9190810190611529565b610d9d565b005b6102fa610ec3565b6040516103079190611834565b60405180910390f35b610318610ee9565b60405161032591906118f0565b60405180910390f35b61034860048036036103439190810190611552565b610eef565b005b610364600480360361035f9190810190611529565b610feb565b60405161037191906118ae565b60405180910390f35b61038261112f565b60405161038f91906118f0565b60405180910390f35b6103b260048036036103ad9190810190611552565b6111c9565b6040516103bf9190611871565b60405180910390f35b6103e260048036036103dd9190810190611552565b611234565b005b60025481565b6000816040516020016103fd9190611806565b60405160208183030381529060405280519060200120600080858152602001908152602001600020604051602001610435919061181d565b6040516020818303038152906040528051906020012014905092915050565b3373ffffffffffffffffffffffffffffffffffffffff16600460009054906101000a900473ffffffffffffffffffffffffffffffffffffffff1673ffffffffffffffffffffffffffffffffffffffff16146104e4576040517f08c379a00000000000000000000000000000000000000000000000000000000081526004016104db906118d0565b60405180910390fd5b80600080848152602001908152602001600020908051906020019061050a929190611357565b507fe4d4c7d39b9d31474417c7774b718db79caaa835c6de7fd9f77107285d6f0d518260405161053a91906118f0565b60405180910390a15050565b3373ffffffffffffffffffffffffffffffffffffffff16600460009054906101000a900473ffffffffffffffffffffffffffffffffffffffff1673ffffffffffffffffffffffffffffffffffffffff16146105d6576040517f08c379a00000000000000000000000000000000000000000000000000000000081526004016105cd906118d0565b60405180910390fd5b806001600084815260200190815260200160002090805190602001906105fd929190611357565b507fe4d4c7d39b9d31474417c7774b718db79caaa835c6de7fd9f77107285d6f0d518260405161062d91906118f0565b60405180910390a15050565b60016020528060005260406000206000915090508054600181600116156101000203166002900480601f0160208091040260200160405190810160405280929190818152602001828054600181600116156101000203166002900480156106e15780601f106106b6576101008083540402835291602001916106e1565b820191906000526020600020905b8154815290600101906020018083116106c457829003601f168201915b505050505081565b60006020528060005260406000206000915090508054600181600116156101000203166002900480601f0160208091040260200160405190810160405280929190818152602001828054600181600116156101000203166002900480156107915780601f1061076657610100808354040283529160200191610791565b820191906000526020600020905b81548152906001019060200180831161077457829003601f168201915b505050505081565b60608082516040519080825280602002602001820160405280156107d157816020015b60608152602001906001900390816107bc5790505b50905060008090505b83518110156108c657600160008583815181106107f357fe5b602002602001015181526020019081526020016000208054600181600116156101000203166002900480601f01602080910402602001604051908101604052809291908181526020018280546001816001161561010002031660029004801561089d5780601f106108725761010080835404028352916020019161089d565b820191906000526020600020905b81548152906001019060200180831161088057829003601f168201915b50505050508282815181106108ae57fe5b602002602001018190525080806001019150506107da565b5080915050919050565b60003373ffffffffffffffffffffffffffffffffffffffff16600460009054906101000a900473ffffffffffffffffffffffffffffffffffffffff1673ffffffffffffffffffffffffffffffffffffffff1614610962576040517f08c379a0000000000000000000000000000000000000000000000000000000008152600401610959906118d0565b60405180910390fd5b600254905090565b60603373ffffffffffffffffffffffffffffffffffffffff16600460009054906101000a900473ffffffffffffffffffffffffffffffffffffffff1673ffffffffffffffffffffffffffffffffffffffff16146109fc576040517f08c379a00000000000000000000000000000000000000000000000000000000081526004016109f3906118d0565b60405180910390fd5b600160008381526020019081526020016000208054600181600116156101000203166002900480601f016020809104026020016040519081016040528092919081815260200182805460018160011615610100020316600290048015610aa35780601f10610a7857610100808354040283529160200191610aa3565b820191906000526020600020905b815481529060010190602001808311610a8657829003601f168201915b50505050509050919050565b60603373ffffffffffffffffffffffffffffffffffffffff16600460009054906101000a900473ffffffffffffffffffffffffffffffffffffffff1673ffffffffffffffffffffffffffffffffffffffff1614610b41576040517f08c379a0000000000000000000000000000000000000000000000000000000008152600401610b38906118d0565b60405180910390fd5b60608251604051908082528060200260200182016040528015610b7857816020015b6060815260200190600190039081610b635790505b50905060008090505b8351811015610c6c57600080858381518110610b9957fe5b602002602001015181526020019081526020016000208054600181600116156101000203166002900480601f016020809104026020016040519081016040528092919081815260200182805460018160011615610100020316600290048015610c435780601f10610c1857610100808354040283529160200191610c43565b820191906000526020600020905b815481529060010190602001808311610c2657829003601f168201915b5050505050828281518110610c5457fe5b60200260200101819052508080600101915050610b81565b5080915050919050565b3373ffffffffffffffffffffffffffffffffffffffff16600460009054906101000a900473ffffffffffffffffffffffffffffffffffffffff1673ffffffffffffffffffffffffffffffffffffffff1614610d06576040517f08c379a0000000000000000000000000000000000000000000000000000000008152600401610cfd906118d0565b60405180910390fd5b6040518060400160405280600181526020017f3000000000000000000000000000000000000000000000000000000000000000815250600160008381526020019081526020016000209080519060200190610d62929190611357565b507fe4d4c7d39b9d31474417c7774b718db79caaa835c6de7fd9f77107285d6f0d5181604051610d9291906118f0565b60405180910390a150565b3373ffffffffffffffffffffffffffffffffffffffff16600460009054906101000a900473ffffffffffffffffffffffffffffffffffffffff1673ffffffffffffffffffffffffffffffffffffffff1614610e2d576040517f08c379a0000000000000000000000000000000000000000000000000000000008152600401610e24906118d0565b60405180910390fd5b6040518060400160405280600181526020017f30000000000000000000000000000000000000000000000000000000000000008152506000808381526020019081526020016000209080519060200190610e88929190611357565b507fe4d4c7d39b9d31474417c7774b718db79caaa835c6de7fd9f77107285d6f0d5181604051610eb891906118f0565b60405180910390a150565b600460009054906101000a900473ffffffffffffffffffffffffffffffffffffffff1681565b60035481565b3373ffffffffffffffffffffffffffffffffffffffff16600460009054906101000a900473ffffffffffffffffffffffffffffffffffffffff1673ffffffffffffffffffffffffffffffffffffffff1614610f7f576040517f08c379a0000000000000000000000000000000000000000000000000000000008152600401610f76906118d0565b60405180910390fd5b806000808481526020019081526020016000209080519060200190610fa5929190611357565b50610fae611331565b7fbba37318c149b1db7d49c422b47f2a61ba899714cb9c7377168ec21d7edfaae18282604051610fdf92919061190b565b60405180910390a15050565b60603373ffffffffffffffffffffffffffffffffffffffff16600460009054906101000a900473ffffffffffffffffffffffffffffffffffffffff1673ffffffffffffffffffffffffffffffffffffffff161461107d576040517f08c379a0000000000000000000000000000000000000000000000000000000008152600401611074906118d0565b60405180910390fd5b6000808381526020019081526020016000208054600181600116156101000203166002900480601f0160208091040260200160405190810160405280929190818152602001828054600181600116156101000203166002900480156111235780601f106110f857610100808354040283529160200191611123565b820191906000526020600020905b81548152906001019060200180831161110657829003601f168201915b50505050509050919050565b60003373ffffffffffffffffffffffffffffffffffffffff16600460009054906101000a900473ffffffffffffffffffffffffffffffffffffffff1673ffffffffffffffffffffffffffffffffffffffff16146111c1576040517f08c379a00000000000000000000000000000000000000000000000000000000081526004016111b8906118d0565b60405180910390fd5b600354905090565b6000816040516020016111dc9190611806565b6040516020818303038152906040528051906020012060016000858152602001908152602001600020604051602001611215919061181d565b6040516020818303038152906040528051906020012014905092915050565b3373ffffffffffffffffffffffffffffffffffffffff16600460009054906101000a900473ffffffffffffffffffffffffffffffffffffffff1673ffffffffffffffffffffffffffffffffffffffff16146112c4576040517f08c379a00000000000000000000000000000000000000000000000000000000081526004016112bb906118d0565b60405180910390fd5b806001600084815260200190815260200160002090805190602001906112eb929190611357565b506112f4611344565b7fbba37318c149b1db7d49c422b47f2a61ba899714cb9c7377168ec21d7edfaae1828260405161132592919061190b565b60405180910390a15050565b6001600260008282540192505081905550565b6001600360008282540192505081905550565b828054600181600116156101000203166002900490600052602060002090601f016020900481019282601f1061139857805160ff19168380011785556113c6565b828001600101855582156113c6579182015b828111156113c55782518255916020019190600101906113aa565b5b5090506113d391906113d7565b5090565b6113f991905b808211156113f55760008160009055506001016113dd565b5090565b90565b600082601f83011261140d57600080fd5b813561142061141b82611968565b61193b565b9150818183526020840193506020810190508385602084028201111561144557600080fd5b60005b83811015611475578161145b88826114d3565b845260208401935060208301925050600181019050611448565b5050505092915050565b600082601f83011261149057600080fd5b81356114a361149e82611990565b61193b565b915080825260208301602083018583830111156114bf57600080fd5b6114ca838284611a95565b50505092915050565b6000813590506114e281611ae8565b92915050565b6000602082840312156114fa57600080fd5b600082013567ffffffffffffffff81111561151457600080fd5b611520848285016113fc565b91505092915050565b60006020828403121561153b57600080fd5b6000611549848285016114d3565b91505092915050565b6000806040838503121561156557600080fd5b6000611573858286016114d3565b925050602083013567ffffffffffffffff81111561159057600080fd5b61159c8582860161147f565b9150509250929050565b60006115b283836116b7565b905092915050565b6115c381611a4d565b82525050565b60006115d4826119e1565b6115de8185611a0f565b9350836020820285016115f0856119bc565b8060005b8581101561162c578484038952815161160d85826115a6565b945061161883611a02565b925060208a019950506001810190506115f4565b50829750879550505050505092915050565b61164781611a5f565b82525050565b6000611658826119f7565b6116628185611a31565b9350611672818560208601611aa4565b61167b81611ad7565b840191505092915050565b6000611691826119f7565b61169b8185611a42565b93506116ab818560208601611aa4565b80840191505092915050565b60006116c2826119ec565b6116cc8185611a20565b93506116dc818560208601611aa4565b6116e581611ad7565b840191505092915050565b60006116fb826119ec565b6117058185611a31565b9350611715818560208601611aa4565b61171e81611ad7565b840191505092915050565b600081546001811660008114611746576001811461176b576117af565b607f60028304166117578187611a42565b955060ff19831686528086019350506117af565b600282046117798187611a42565b9550611784856119cc565b60005b828110156117a657815481890152600182019150602081019050611787565b82880195505050505b505092915050565b60006117c4601583611a31565b91507f73656e646572206973206e6f742061206f776e657200000000000000000000006000830152602082019050919050565b61180081611a8b565b82525050565b60006118128284611686565b915081905092915050565b60006118298284611729565b915081905092915050565b600060208201905061184960008301846115ba565b92915050565b6000602082019050818103600083015261186981846115c9565b905092915050565b6000602082019050611886600083018461163e565b92915050565b600060208201905081810360008301526118a681846116f0565b905092915050565b600060208201905081810360008301526118c8818461164d565b905092915050565b600060208201905081810360008301526118e9816117b7565b9050919050565b600060208201905061190560008301846117f7565b92915050565b600060408201905061192060008301856117f7565b8181036020830152611932818461164d565b90509392505050565b6000604051905081810181811067ffffffffffffffff8211171561195e57600080fd5b8060405250919050565b600067ffffffffffffffff82111561197f57600080fd5b602082029050602081019050919050565b600067ffffffffffffffff8211156119a757600080fd5b601f19601f8301169050602081019050919050565b6000819050602082019050919050565b60008190508160005260206000209050919050565b600081519050919050565b600081519050919050565b600081519050919050565b6000602082019050919050565b600082825260208201905092915050565b600082825260208201905092915050565b600082825260208201905092915050565b600081905092915050565b6000611a5882611a6b565b9050919050565b60008115159050919050565b600073ffffffffffffffffffffffffffffffffffffffff82169050919050565b6000819050919050565b82818337600083830152505050565b60005b83811015611ac2578082015181840152602081019050611aa7565b83811115611ad1576000848401525b50505050565b6000601f19601f8301169050919050565b611af181611a8b565b8114611afc57600080fd5b5056fea365627a7a72315820b06dc2ae91e8229da60800df2c980803e8e9b1338ba0ffbd271a884fe53d5f716c6578706572696d656e74616cf564736f6c63430005100040",
  "source": "pragma solidity ^0.5.16;\npragma experimental ABIEncoderV2;\n\ncontract Kyc {\n    mapping(uint256 => string) public users;\n    mapping(uint256 => string) public companies;\n    uint256 public userCount = 0;\n    uint256 public companyCount = 0;\n    address public owner;\n\n    constructor() public {\n        owner = msg.sender;\n    }\n\n    event Create(uint256 _id, string _hashValue);\n    event Identity(uint256 _id);\n\n    modifier onlyOwner() {\n        require(owner == msg.sender, 'sender is not a owner');\n        _;\n    }\n\n    function incrementUserCount() internal {\n        userCount += 1;\n    }\n\n    function incrementCompanyCount() internal {\n        companyCount += 1;\n    }\n\n    function renewUser(uint256 _id, string memory _hashValue) public onlyOwner {\n        users[_id] = _hashValue;\n        emit Identity(_id);\n    }\n\n    function renewCompany(uint256 _id, string memory _hashValue) public onlyOwner {\n        companies[_id] = _hashValue;\n        emit Identity(_id);\n    }\n\n    function burnUser(uint256 _id) public onlyOwner {\n        users[_id] = \"0\";\n        emit Identity(_id);\n    }\n\n    function burnCompany(uint256 _id) public onlyOwner {\n        companies[_id] = \"0\";\n        emit Identity(_id);\n    }\n\n    function getUser(uint256 _id) public onlyOwner view returns (string memory) {\n        return users[_id];\n    }\n\n    function getCompany(uint256 _id) public onlyOwner view returns (string memory) {\n        return companies[_id];\n    }\n\n    function verifyUser(uint _id, string memory _hashHex) public view returns (bool) {\n       return keccak256(abi.encodePacked(users[_id])) == keccak256(abi.encodePacked(_hashHex));\n    }\n\n    function verifyCompany(uint _id, string memory _hashHex) public view returns (bool) {\n       return keccak256(abi.encodePacked(companies[_id])) == keccak256(abi.encodePacked(_hashHex));\n    }\n\n    function totalUserCount() public onlyOwner view returns (uint256) {\n        return userCount;\n    }\n\n    function totalCompanyCount() public onlyOwner view returns (uint256) {\n        return companyCount;\n    }\n\n    function getTotalUser(uint256[] memory _ids) public onlyOwner view returns (string [] memory) {\n        string [] memory _users = new string [] (_ids.length);\n        for (uint256 i = 0; i < _ids.length; i++) {\n            _users[i] = users[_ids[i]];\n        }\n        return _users;\n    }\n\n    function getTotalCompany(uint256[] memory _ids) public view returns (string[] memory) {\n        string [] memory _companies = new string [] (_ids.length);\n        for (uint256 i = 0; i < _ids.length; i++) {\n            _companies[i] = companies[_ids[i]];\n        }\n        return _companies;\n    }\n\n    function validateUser(uint256 _id, string memory _hashValue) public onlyOwner {\n        users[_id] = _hashValue;\n        incrementUserCount();\n        emit Create(_id, _hashValue);\n    }\n\n    function validateCompany(uint256 _id, string memory _hashValue) public onlyOwner {\n        companies[_id] = _hashValue;\n        incrementCompanyCount();\n        emit Create(_id, _hashValue);\n    }\n}\n",
  "sourcePath": "/Users/timcheng/personal/fyp/smart-ticket-blockchain/smart-contract/contracts/Kyc.sol",
  "compiler": {
    "name": "solc",
    "version": "0.5.16+commit.9c3226ce.Emscripten.clang"
  },
  "schemaVersion": "3.3.2",
  "updatedAt": "2021-04-15T06:39:14.080Z",
  "networkType": "ethereum",
  "devdoc": {
    "methods": {}
  },
  "userdoc": {
    "methods": {}
  }
}