{
  "contractName": "Ticket",
  "abi": [
    {
      "inputs": [],
      "payable": false,
      "stateMutability": "nonpayable",
      "type": "constructor"
    },
    {
      "anonymous": false,
      "inputs": [
        {
          "indexed": true,
          "internalType": "address",
          "name": "owner",
          "type": "address"
        },
        {
          "indexed": true,
          "internalType": "address",
          "name": "approved",
          "type": "address"
        },
        {
          "indexed": true,
          "internalType": "uint256",
          "name": "tokenId",
          "type": "uint256"
        }
      ],
      "name": "Approval",
      "type": "event"
    },
    {
      "anonymous": false,
      "inputs": [
        {
          "indexed": true,
          "internalType": "address",
          "name": "owner",
          "type": "address"
        },
        {
          "indexed": true,
          "internalType": "address",
          "name": "operator",
          "type": "address"
        },
        {
          "indexed": false,
          "internalType": "bool",
          "name": "approved",
          "type": "bool"
        }
      ],
      "name": "ApprovalForAll",
      "type": "event"
    },
    {
      "anonymous": false,
      "inputs": [
        {
          "indexed": false,
          "internalType": "address",
          "name": "_owner",
          "type": "address"
        },
        {
          "indexed": false,
          "internalType": "uint256",
          "name": "_event_id",
          "type": "uint256"
        },
        {
          "indexed": false,
          "internalType": "string",
          "name": "_hash_key",
          "type": "string"
        }
      ],
      "name": "Create",
      "type": "event"
    },
    {
      "anonymous": false,
      "inputs": [
        {
          "indexed": false,
          "internalType": "string[]",
          "name": "_tickets",
          "type": "string[]"
        }
      ],
      "name": "CreateTickets",
      "type": "event"
    },
    {
      "anonymous": false,
      "inputs": [
        {
          "indexed": false,
          "internalType": "string[]",
          "name": "_tickets",
          "type": "string[]"
        },
        {
          "indexed": false,
          "internalType": "uint256",
          "name": "_eventId",
          "type": "uint256"
        }
      ],
      "name": "CreateTicketsByEvent",
      "type": "event"
    },
    {
      "anonymous": false,
      "inputs": [
        {
          "indexed": false,
          "internalType": "address",
          "name": "target",
          "type": "address"
        },
        {
          "indexed": false,
          "internalType": "uint256",
          "name": "tokenId",
          "type": "uint256"
        }
      ],
      "name": "Trade",
      "type": "event"
    },
    {
      "anonymous": false,
      "inputs": [
        {
          "indexed": false,
          "internalType": "address",
          "name": "from",
          "type": "address"
        },
        {
          "indexed": false,
          "internalType": "address",
          "name": "to",
          "type": "address"
        },
        {
          "indexed": false,
          "internalType": "uint256",
          "name": "tokenId",
          "type": "uint256"
        }
      ],
      "name": "Transfer",
      "type": "event"
    },
    {
      "anonymous": false,
      "inputs": [
        {
          "indexed": false,
          "internalType": "address",
          "name": "from",
          "type": "address"
        },
        {
          "indexed": false,
          "internalType": "address",
          "name": "to",
          "type": "address"
        },
        {
          "indexed": false,
          "internalType": "uint256[]",
          "name": "tokenId",
          "type": "uint256[]"
        }
      ],
      "name": "TransferMulti",
      "type": "event"
    },
    {
      "constant": false,
      "inputs": [
        {
          "internalType": "address",
          "name": "_approve",
          "type": "address"
        }
      ],
      "name": "addApproval",
      "outputs": [],
      "payable": false,
      "stateMutability": "nonpayable",
      "type": "function"
    },
    {
      "constant": false,
      "inputs": [
        {
          "internalType": "address",
          "name": "to",
          "type": "address"
        },
        {
          "internalType": "uint256",
          "name": "tokenId",
          "type": "uint256"
        }
      ],
      "name": "approve",
      "outputs": [],
      "payable": false,
      "stateMutability": "nonpayable",
      "type": "function"
    },
    {
      "constant": true,
      "inputs": [],
      "name": "approveId",
      "outputs": [
        {
          "internalType": "uint256",
          "name": "",
          "type": "uint256"
        }
      ],
      "payable": false,
      "stateMutability": "view",
      "type": "function"
    },
    {
      "constant": true,
      "inputs": [
        {
          "internalType": "address",
          "name": "",
          "type": "address"
        }
      ],
      "name": "approves",
      "outputs": [
        {
          "internalType": "bool",
          "name": "",
          "type": "bool"
        }
      ],
      "payable": false,
      "stateMutability": "view",
      "type": "function"
    },
    {
      "constant": true,
      "inputs": [
        {
          "internalType": "address",
          "name": "owner",
          "type": "address"
        }
      ],
      "name": "balanceOf",
      "outputs": [
        {
          "internalType": "uint256",
          "name": "",
          "type": "uint256"
        }
      ],
      "payable": false,
      "stateMutability": "view",
      "type": "function"
    },
    {
      "constant": false,
      "inputs": [
        {
          "internalType": "address",
          "name": "_owner",
          "type": "address"
        },
        {
          "internalType": "uint256",
          "name": "_event_id",
          "type": "uint256"
        },
        {
          "internalType": "string",
          "name": "_hash_key",
          "type": "string"
        }
      ],
      "name": "createEvent",
      "outputs": [],
      "payable": false,
      "stateMutability": "nonpayable",
      "type": "function"
    },
    {
      "constant": true,
      "inputs": [],
      "name": "eventContractOwner",
      "outputs": [
        {
          "internalType": "address",
          "name": "",
          "type": "address"
        }
      ],
      "payable": false,
      "stateMutability": "view",
      "type": "function"
    },
    {
      "constant": true,
      "inputs": [],
      "name": "eventId",
      "outputs": [
        {
          "internalType": "uint256",
          "name": "",
          "type": "uint256"
        }
      ],
      "payable": false,
      "stateMutability": "view",
      "type": "function"
    },
    {
      "constant": true,
      "inputs": [
        {
          "internalType": "uint256",
          "name": "",
          "type": "uint256"
        }
      ],
      "name": "eventOwner",
      "outputs": [
        {
          "internalType": "address",
          "name": "",
          "type": "address"
        }
      ],
      "payable": false,
      "stateMutability": "view",
      "type": "function"
    },
    {
      "constant": true,
      "inputs": [
        {
          "internalType": "address",
          "name": "_owner",
          "type": "address"
        }
      ],
      "name": "eventOwnerBalanceOf",
      "outputs": [
        {
          "internalType": "uint256",
          "name": "",
          "type": "uint256"
        }
      ],
      "payable": false,
      "stateMutability": "view",
      "type": "function"
    },
    {
      "constant": true,
      "inputs": [
        {
          "internalType": "uint256",
          "name": "",
          "type": "uint256"
        }
      ],
      "name": "events",
      "outputs": [
        {
          "internalType": "address",
          "name": "owner",
          "type": "address"
        },
        {
          "internalType": "uint256",
          "name": "event_id",
          "type": "uint256"
        },
        {
          "internalType": "string",
          "name": "hash_key",
          "type": "string"
        }
      ],
      "payable": false,
      "stateMutability": "view",
      "type": "function"
    },
    {
      "constant": true,
      "inputs": [],
      "name": "getApproveId",
      "outputs": [
        {
          "internalType": "uint256",
          "name": "",
          "type": "uint256"
        }
      ],
      "payable": false,
      "stateMutability": "view",
      "type": "function"
    },
    {
      "constant": true,
      "inputs": [
        {
          "internalType": "uint256",
          "name": "tokenId",
          "type": "uint256"
        }
      ],
      "name": "getApproved",
      "outputs": [
        {
          "internalType": "address",
          "name": "",
          "type": "address"
        }
      ],
      "payable": false,
      "stateMutability": "view",
      "type": "function"
    },
    {
      "constant": true,
      "inputs": [
        {
          "internalType": "uint256",
          "name": "_eventId",
          "type": "uint256"
        }
      ],
      "name": "getEvent",
      "outputs": [
        {
          "internalType": "uint256",
          "name": "",
          "type": "uint256"
        }
      ],
      "payable": false,
      "stateMutability": "view",
      "type": "function"
    },
    {
      "constant": true,
      "inputs": [],
      "name": "getEventContractOwner",
      "outputs": [
        {
          "internalType": "address",
          "name": "",
          "type": "address"
        }
      ],
      "payable": false,
      "stateMutability": "view",
      "type": "function"
    },
    {
      "constant": true,
      "inputs": [],
      "name": "getEventId",
      "outputs": [
        {
          "internalType": "uint256",
          "name": "",
          "type": "uint256"
        }
      ],
      "payable": false,
      "stateMutability": "view",
      "type": "function"
    },
    {
      "constant": true,
      "inputs": [
        {
          "internalType": "uint256",
          "name": "_eventId",
          "type": "uint256"
        }
      ],
      "name": "getEventOwner",
      "outputs": [
        {
          "internalType": "address",
          "name": "",
          "type": "address"
        }
      ],
      "payable": false,
      "stateMutability": "view",
      "type": "function"
    },
    {
      "constant": true,
      "inputs": [
        {
          "internalType": "address",
          "name": "_approve",
          "type": "address"
        }
      ],
      "name": "isApproval",
      "outputs": [
        {
          "internalType": "bool",
          "name": "",
          "type": "bool"
        }
      ],
      "payable": false,
      "stateMutability": "view",
      "type": "function"
    },
    {
      "constant": true,
      "inputs": [
        {
          "internalType": "address",
          "name": "owner",
          "type": "address"
        },
        {
          "internalType": "address",
          "name": "operator",
          "type": "address"
        }
      ],
      "name": "isApprovedForAll",
      "outputs": [
        {
          "internalType": "bool",
          "name": "",
          "type": "bool"
        }
      ],
      "payable": false,
      "stateMutability": "view",
      "type": "function"
    },
    {
      "constant": true,
      "inputs": [],
      "name": "marketplaceTicketId",
      "outputs": [
        {
          "internalType": "uint256",
          "name": "",
          "type": "uint256"
        }
      ],
      "payable": false,
      "stateMutability": "view",
      "type": "function"
    },
    {
      "constant": true,
      "inputs": [
        {
          "internalType": "uint256",
          "name": "",
          "type": "uint256"
        }
      ],
      "name": "marketplaceTicketList",
      "outputs": [
        {
          "internalType": "uint256",
          "name": "",
          "type": "uint256"
        }
      ],
      "payable": false,
      "stateMutability": "view",
      "type": "function"
    },
    {
      "constant": true,
      "inputs": [
        {
          "internalType": "uint256",
          "name": "",
          "type": "uint256"
        }
      ],
      "name": "marketplaceTickets",
      "outputs": [
        {
          "internalType": "address",
          "name": "",
          "type": "address"
        }
      ],
      "payable": false,
      "stateMutability": "view",
      "type": "function"
    },
    {
      "constant": true,
      "inputs": [],
      "name": "name",
      "outputs": [
        {
          "internalType": "string",
          "name": "",
          "type": "string"
        }
      ],
      "payable": false,
      "stateMutability": "view",
      "type": "function"
    },
    {
      "constant": true,
      "inputs": [
        {
          "internalType": "uint256",
          "name": "tokenId",
          "type": "uint256"
        }
      ],
      "name": "ownerOf",
      "outputs": [
        {
          "internalType": "address",
          "name": "",
          "type": "address"
        }
      ],
      "payable": false,
      "stateMutability": "view",
      "type": "function"
    },
    {
      "constant": false,
      "inputs": [
        {
          "internalType": "address",
          "name": "_approve",
          "type": "address"
        }
      ],
      "name": "removeApproval",
      "outputs": [],
      "payable": false,
      "stateMutability": "nonpayable",
      "type": "function"
    },
    {
      "constant": false,
      "inputs": [
        {
          "internalType": "address",
          "name": "to",
          "type": "address"
        },
        {
          "internalType": "bool",
          "name": "approved",
          "type": "bool"
        }
      ],
      "name": "setApprovalForAll",
      "outputs": [],
      "payable": false,
      "stateMutability": "nonpayable",
      "type": "function"
    },
    {
      "constant": true,
      "inputs": [
        {
          "internalType": "bytes4",
          "name": "interfaceId",
          "type": "bytes4"
        }
      ],
      "name": "supportsInterface",
      "outputs": [
        {
          "internalType": "bool",
          "name": "",
          "type": "bool"
        }
      ],
      "payable": false,
      "stateMutability": "view",
      "type": "function"
    },
    {
      "constant": true,
      "inputs": [],
      "name": "symbol",
      "outputs": [
        {
          "internalType": "string",
          "name": "",
          "type": "string"
        }
      ],
      "payable": false,
      "stateMutability": "view",
      "type": "function"
    },
    {
      "constant": true,
      "inputs": [],
      "name": "ticketContractOwner",
      "outputs": [
        {
          "internalType": "address",
          "name": "",
          "type": "address"
        }
      ],
      "payable": false,
      "stateMutability": "view",
      "type": "function"
    },
    {
      "constant": true,
      "inputs": [],
      "name": "ticketCount",
      "outputs": [
        {
          "internalType": "uint256",
          "name": "",
          "type": "uint256"
        }
      ],
      "payable": false,
      "stateMutability": "view",
      "type": "function"
    },
    {
      "constant": true,
      "inputs": [
        {
          "internalType": "uint256",
          "name": "",
          "type": "uint256"
        }
      ],
      "name": "tickets",
      "outputs": [
        {
          "internalType": "uint256",
          "name": "eventId",
          "type": "uint256"
        },
        {
          "internalType": "string",
          "name": "detail",
          "type": "string"
        },
        {
          "internalType": "uint256",
          "name": "ticketId",
          "type": "uint256"
        }
      ],
      "payable": false,
      "stateMutability": "view",
      "type": "function"
    },
    {
      "constant": true,
      "inputs": [
        {
          "internalType": "uint256",
          "name": "index",
          "type": "uint256"
        }
      ],
      "name": "tokenByIndex",
      "outputs": [
        {
          "internalType": "uint256",
          "name": "",
          "type": "uint256"
        }
      ],
      "payable": false,
      "stateMutability": "view",
      "type": "function"
    },
    {
      "constant": true,
      "inputs": [
        {
          "internalType": "address",
          "name": "owner",
          "type": "address"
        },
        {
          "internalType": "uint256",
          "name": "index",
          "type": "uint256"
        }
      ],
      "name": "tokenOfOwnerByIndex",
      "outputs": [
        {
          "internalType": "uint256",
          "name": "",
          "type": "uint256"
        }
      ],
      "payable": false,
      "stateMutability": "view",
      "type": "function"
    },
    {
      "constant": true,
      "inputs": [
        {
          "internalType": "uint256",
          "name": "tokenId",
          "type": "uint256"
        }
      ],
      "name": "tokenURI",
      "outputs": [
        {
          "internalType": "string",
          "name": "",
          "type": "string"
        }
      ],
      "payable": false,
      "stateMutability": "view",
      "type": "function"
    },
    {
      "constant": true,
      "inputs": [],
      "name": "totalSupply",
      "outputs": [
        {
          "internalType": "uint256",
          "name": "",
          "type": "uint256"
        }
      ],
      "payable": false,
      "stateMutability": "view",
      "type": "function"
    },
    {
      "constant": false,
      "inputs": [
        {
          "internalType": "address",
          "name": "from",
          "type": "address"
        },
        {
          "internalType": "address",
          "name": "to",
          "type": "address"
        },
        {
          "internalType": "uint256",
          "name": "tokenId",
          "type": "uint256"
        }
      ],
      "name": "transferFrom",
      "outputs": [],
      "payable": false,
      "stateMutability": "nonpayable",
      "type": "function"
    },
    {
      "constant": true,
      "inputs": [],
      "name": "getTicketCount",
      "outputs": [
        {
          "internalType": "uint256",
          "name": "",
          "type": "uint256"
        }
      ],
      "payable": false,
      "stateMutability": "view",
      "type": "function"
    },
    {
      "constant": true,
      "inputs": [],
      "name": "getMarketplaceTicketId",
      "outputs": [
        {
          "internalType": "uint256",
          "name": "",
          "type": "uint256"
        }
      ],
      "payable": false,
      "stateMutability": "view",
      "type": "function"
    },
    {
      "constant": false,
      "inputs": [
        {
          "internalType": "string[]",
          "name": "_tickets",
          "type": "string[]"
        }
      ],
      "name": "mint",
      "outputs": [],
      "payable": false,
      "stateMutability": "nonpayable",
      "type": "function"
    },
    {
      "constant": false,
      "inputs": [
        {
          "internalType": "string[]",
          "name": "_tickets",
          "type": "string[]"
        },
        {
          "internalType": "uint256",
          "name": "_eventId",
          "type": "uint256"
        }
      ],
      "name": "mintByEvent",
      "outputs": [],
      "payable": false,
      "stateMutability": "nonpayable",
      "type": "function"
    },
    {
      "constant": false,
      "inputs": [
        {
          "internalType": "address",
          "name": "_from",
          "type": "address"
        },
        {
          "internalType": "address",
          "name": "_to",
          "type": "address"
        },
        {
          "internalType": "uint256[]",
          "name": "_tokenIds",
          "type": "uint256[]"
        }
      ],
      "name": "multiTransferFrom",
      "outputs": [],
      "payable": false,
      "stateMutability": "nonpayable",
      "type": "function"
    },
    {
      "constant": false,
      "inputs": [
        {
          "internalType": "address",
          "name": "_from",
          "type": "address"
        },
        {
          "internalType": "address",
          "name": "_to",
          "type": "address"
        },
        {
          "internalType": "uint256",
          "name": "_tokenId",
          "type": "uint256"
        }
      ],
      "name": "safeTransferFrom",
      "outputs": [],
      "payable": false,
      "stateMutability": "nonpayable",
      "type": "function"
    },
    {
      "constant": false,
      "inputs": [
        {
          "internalType": "address",
          "name": "from",
          "type": "address"
        },
        {
          "internalType": "address",
          "name": "to",
          "type": "address"
        },
        {
          "internalType": "uint256",
          "name": "tokenId",
          "type": "uint256"
        },
        {
          "internalType": "bytes",
          "name": "_data",
          "type": "bytes"
        }
      ],
      "name": "safeTransferFrom",
      "outputs": [],
      "payable": false,
      "stateMutability": "nonpayable",
      "type": "function"
    },
    {
      "constant": false,
      "inputs": [
        {
          "internalType": "address",
          "name": "seller",
          "type": "address"
        },
        {
          "internalType": "uint256",
          "name": "ticketId",
          "type": "uint256"
        }
      ],
      "name": "sellTicketsOnMarketplace",
      "outputs": [],
      "payable": false,
      "stateMutability": "nonpayable",
      "type": "function"
    },
    {
      "constant": false,
      "inputs": [
        {
          "internalType": "address",
          "name": "buyer",
          "type": "address"
        },
        {
          "internalType": "uint256",
          "name": "ticketId",
          "type": "uint256"
        }
      ],
      "name": "buyTicketOnMarketplace",
      "outputs": [],
      "payable": false,
      "stateMutability": "nonpayable",
      "type": "function"
    },
    {
      "constant": false,
      "inputs": [
        {
          "internalType": "address",
          "name": "from",
          "type": "address"
        },
        {
          "internalType": "address",
          "name": "to",
          "type": "address"
        },
        {
          "internalType": "uint256",
          "name": "tokenId",
          "type": "uint256"
        }
      ],
      "name": "transferFromByContractOwner",
      "outputs": [],
      "payable": false,
      "stateMutability": "nonpayable",
      "type": "function"
    },
    {
      "constant": true,
      "inputs": [
        {
          "internalType": "uint256",
          "name": "ticketId",
          "type": "uint256"
        }
      ],
      "name": "getTicketOnMarketplace",
      "outputs": [
        {
          "internalType": "address",
          "name": "",
          "type": "address"
        }
      ],
      "payable": false,
      "stateMutability": "view",
      "type": "function"
    }
  ],
  "bytecode": "0x60806040526000600e556000600f5560006014553480156200002057600080fd5b506040518060400160405280600681526020017f5469636b657400000000000000000000000000000000000000000000000000008152506040518060400160405280600381526020017f54434b00000000000000000000000000000000000000000000000000000000008152508181620000a76301ffc9a760e01b620001ad60201b60201c565b620000bf6380ac58cd60e01b620001ad60201b60201c565b620000d763780e9d6360e01b620001ad60201b60201c565b8160099080519060200190620000ef92919062000285565b5080600a90805190602001906200010892919062000285565b5062000121635b5e139f60e01b620001ad60201b60201c565b5050505033601060006101000a81548173ffffffffffffffffffffffffffffffffffffffff021916908373ffffffffffffffffffffffffffffffffffffffff16021790555033601560006101000a81548173ffffffffffffffffffffffffffffffffffffffff021916908373ffffffffffffffffffffffffffffffffffffffff160217905550620003a9565b63ffffffff60e01b817bffffffffffffffffffffffffffffffffffffffffffffffffffffffff1916141562000219576040517f08c379a0000000000000000000000000000000000000000000000000000000008152600401620002109062000376565b60405180910390fd5b6001600080837bffffffffffffffffffffffffffffffffffffffffffffffffffffffff19167bffffffffffffffffffffffffffffffffffffffffffffffffffffffff1916815260200190815260200160002060006101000a81548160ff02191690831515021790555050565b828054600181600116156101000203166002900490600052602060002090601f016020900481019282601f10620002c857805160ff1916838001178555620002f9565b82800160010185558215620002f9579182015b82811115620002f8578251825591602001919060010190620002db565b5b5090506200030891906200030c565b5090565b6200033191905b808211156200032d57600081600090555060010162000313565b5090565b90565b600062000343601c8362000398565b91507f4552433136353a20696e76616c696420696e74657266616365206964000000006000830152602082019050919050565b60006020820190508181036000830152620003918162000334565b9050919050565b600082825260208201905092915050565b61482480620003b96000396000f3fe608060405234801561001057600080fd5b50600436106102955760003560e01c80636fa3b20b11610167578063b4d59d27116100ce578063d37f4acf11610087578063d37f4acf1461084e578063dc8636d51461087e578063e985e9c5146108ae578063f39346f3146108de578063f487c6021461090e578063fe210f691461092a57610295565b8063b4d59d271461077a578063b88d4fde146107aa578063c13cf59a146107c6578063c87b56dd146107e4578063cb44211e14610814578063cfbd900f1461083057610295565b80638b01b3e7116101205780638b01b3e7146106bc57806395d89b41146106d85780639d6bc490146106f6578063a22cb46514610712578063ae242ac31461072e578063b4af93ad1461075e57610295565b80636fa3b20b146105fa57806370a082311461061657806379a9e8eb146106465780637a844d65146106645780637cab5e8c146106825780638a62462e1461069e57610295565b8063323c635a1161020b5780634f6ccce7116101c45780634f6ccce7146104ec57806350b447121461051c57806354f7a0e61461054e5780635768f2711461057e5780636352211e1461059a5780636d1884e0146105ca57610295565b8063323c635a1461042a578063331b27631461044857806333e0a5ac1461047857806342842e0e1461049657806349f80c00146104b25780634a17bbde146104ce57610295565b80630b7914301161025d5780630b7914301461035257806318160ddd1461038457806319717d54146103a257806321c63a47146103c057806323b872dd146103de5780632f745c59146103fa57610295565b806301ffc9a71461029a57806306fdde03146102ca578063081812fc146102e8578063089cdd0c14610318578063095ea7b314610336575b600080fd5b6102b460048036036102af9190810190613463565b61095a565b6040516102c1919061414b565b60405180910390f35b6102d26109c1565b6040516102df9190614166565b60405180910390f35b61030260048036036102fd91908101906134b5565b610a63565b60405161030f9190613f78565b60405180910390f35b610320610ae8565b60405161032d9190614468565b60405180910390f35b610350600480360361034b919081019061332b565b610aee565b005b61036c600480360361036791908101906134b5565b610c9b565b60405161037b9392919061407d565b60405180910390f35b61038c610d7d565b6040516103999190614468565b60405180910390f35b6103aa610d8a565b6040516103b79190614468565b60405180910390f35b6103c8610d90565b6040516103d59190614468565b60405180910390f35b6103f860048036036103f39190810190613225565b610d9a565b005b610414600480360361040f919081019061332b565b610df3565b6040516104219190614468565b60405180910390f35b610432610e9c565b60405161043f9190614468565b60405180910390f35b610462600480360361045d9190810190613159565b610ea6565b60405161046f919061414b565b60405180910390f35b610480610efc565b60405161048d9190614468565b60405180910390f35b6104b060048036036104ab9190810190613225565b610f02565b005b6104cc60048036036104c7919081019061332b565b610f4d565b005b6104d66110ad565b6040516104e39190614468565b60405180910390f35b610506600480360361050191908101906134b5565b6110b7565b6040516105139190614468565b60405180910390f35b610536600480360361053191908101906134b5565b611121565b60405161054593929190614483565b60405180910390f35b610568600480360361056391908101906134b5565b6111e3565b6040516105759190613f78565b60405180910390f35b610598600480360361059391908101906133ce565b611216565b005b6105b460048036036105af91908101906134b5565b6112ff565b6040516105c19190613f78565b60405180910390f35b6105e460048036036105df91908101906134b5565b6113b1565b6040516105f19190614468565b60405180910390f35b610614600480360361060f919081019061332b565b6113d1565b005b610630600480360361062b9190810190613159565b6115bb565b60405161063d9190614468565b60405180910390f35b61064e61167a565b60405161065b9190613f78565b60405180910390f35b61066c6116a0565b6040516106799190614468565b60405180910390f35b61069c60048036036106979190810190613159565b6116aa565b005b6106a6611795565b6040516106b39190613f78565b60405180910390f35b6106d660048036036106d19190810190613225565b6117bf565b005b6106e06118d0565b6040516106ed9190614166565b60405180910390f35b610710600480360361070b9190810190613367565b611972565b005b61072c600480360361072791908101906132ef565b611b0c565b005b610748600480360361074391908101906134b5565b611c78565b6040516107559190614468565b60405180910390f35b6107786004803603610773919081019061340f565b611c99565b005b610794600480360361078f91908101906134b5565b611d80565b6040516107a19190613f78565b60405180910390f35b6107c460048036036107bf9190810190613274565b611db3565b005b6107ce611e0f565b6040516107db9190613f78565b60405180910390f35b6107fe60048036036107f991908101906134b5565b611e35565b60405161080b9190614166565b60405180910390f35b61082e60048036036108299190810190613159565b611f32565b005b610838612025565b6040516108459190614468565b60405180910390f35b61086860048036036108639190810190613159565b61202b565b604051610875919061414b565b60405180910390f35b610898600480360361089391908101906134b5565b61204b565b6040516108a59190613f78565b60405180910390f35b6108c860048036036108c39190810190613182565b612088565b6040516108d5919061414b565b60405180910390f35b6108f860048036036108f39190810190613159565b61211c565b6040516109059190614468565b60405180910390f35b610928600480360361092391908101906131be565b6121fd565b005b610944600480360361093f91908101906134b5565b612278565b6040516109519190613f78565b60405180910390f35b6000806000837bffffffffffffffffffffffffffffffffffffffffffffffffffffffff19167bffffffffffffffffffffffffffffffffffffffffffffffffffffffff1916815260200190815260200160002060009054906101000a900460ff169050919050565b606060098054600181600116156101000203166002900480601f016020809104026020016040519081016040528092919081815260200182805460018160011615610100020316600290048015610a595780601f10610a2e57610100808354040283529160200191610a59565b820191906000526020600020905b815481529060010190602001808311610a3c57829003601f168201915b5050505050905090565b6000610a6e826122b5565b610aad576040517f08c379a0000000000000000000000000000000000000000000000000000000008152600401610aa490614368565b60405180910390fd5b6002600083815260200190815260200160002060009054906101000a900473ffffffffffffffffffffffffffffffffffffffff169050919050565b600e5481565b6000610af9826112ff565b90508073ffffffffffffffffffffffffffffffffffffffff168373ffffffffffffffffffffffffffffffffffffffff161415610b6a576040517f08c379a0000000000000000000000000000000000000000000000000000000008152600401610b61906143c8565b60405180910390fd5b8073ffffffffffffffffffffffffffffffffffffffff163373ffffffffffffffffffffffffffffffffffffffff161480610baa5750610ba98133612088565b5b610be9576040517f08c379a0000000000000000000000000000000000000000000000000000000008152600401610be0906142e8565b60405180910390fd5b826002600084815260200190815260200160002060006101000a81548173ffffffffffffffffffffffffffffffffffffffff021916908373ffffffffffffffffffffffffffffffffffffffff160217905550818373ffffffffffffffffffffffffffffffffffffffff168273ffffffffffffffffffffffffffffffffffffffff167f8c5be1e5ebec7d5bd14f71427d1e84f3dd0314c0f7b2291e5b200ac8c7c3b92560405160405180910390a4505050565b600c6020528060005260406000206000915090508060000160009054906101000a900473ffffffffffffffffffffffffffffffffffffffff1690806001015490806002018054600181600116156101000203166002900480601f016020809104026020016040519081016040528092919081815260200182805460018160011615610100020316600290048015610d735780601f10610d4857610100808354040283529160200191610d73565b820191906000526020600020905b815481529060010190602001808311610d5657829003601f168201915b5050505050905083565b6000600780549050905090565b600f5481565b6000601454905090565b610da43382612327565b610de3576040517f08c379a0000000000000000000000000000000000000000000000000000000008152600401610dda90614408565b60405180910390fd5b610dee838383612405565b505050565b6000610dfe836115bb565b8210610e3f576040517f08c379a0000000000000000000000000000000000000000000000000000000008152600401610e3690614188565b60405180910390fd5b600560008473ffffffffffffffffffffffffffffffffffffffff1673ffffffffffffffffffffffffffffffffffffffff1681526020019081526020016000208281548110610e8957fe5b9060005260206000200154905092915050565b6000600f54905090565b6000600d60008373ffffffffffffffffffffffffffffffffffffffff1673ffffffffffffffffffffffffffffffffffffffff16815260200190815260200160002060009054906101000a900460ff169050919050565b60185481565b610f0d838383612429565b7fddf252ad1be2c89b69c2b068fc378daa952ba7f163c4a11628f55a4df523b3ef838383604051610f409392919061401d565b60405180910390a1505050565b6000610f58826112ff565b90508073ffffffffffffffffffffffffffffffffffffffff168373ffffffffffffffffffffffffffffffffffffffff161415610fc9576040517f08c379a0000000000000000000000000000000000000000000000000000000008152600401610fc090614268565b60405180910390fd5b610fd282612449565b611011576040517f08c379a0000000000000000000000000000000000000000000000000000000008152600401611008906141e8565b60405180910390fd5b61101c8184846117bf565b60006016600084815260200190815260200160002060006101000a81548173ffffffffffffffffffffffffffffffffffffffff021916908373ffffffffffffffffffffffffffffffffffffffff1602179055507f473143fbc5eac9f496272408e704b4ab0136ed56a4b525e3f3919ffe96ffc93583836040516110a0929190614054565b60405180910390a1505050565b6000600e54905090565b60006110c1610d7d565b8210611102576040517f08c379a00000000000000000000000000000000000000000000000000000000081526004016110f990614428565b60405180910390fd5b6007828154811061110f57fe5b90600052602060002001549050919050565b6013602052806000526040600020600091509050806000015490806001018054600181600116156101000203166002900480601f0160208091040260200160405190810160405280929190818152602001828054600181600116156101000203166002900480156111d35780601f106111a8576101008083540402835291602001916111d3565b820191906000526020600020905b8154815290600101906020018083116111b657829003601f168201915b5050505050908060020154905083565b60166020528060005260406000206000915054906101000a900473ffffffffffffffffffffffffffffffffffffffff1681565b60008090505b81518110156112c457611231336014546124bb565b60405180606001604052806001600e5403815260200183838151811061125357fe5b602002602001015181526020016014548152506013600060145481526020019081526020016000206000820151816000015560208201518160010190805190602001906112a1929190612e2c565b50604082015181600201559050506112b76124dc565b808060010191505061121c565b507f8b1bf817d0a0395e08feb778f1aa43c226716e1edbcceaee95de20e16b629a66816040516112f491906140f9565b60405180910390a150565b6000806001600084815260200190815260200160002060009054906101000a900473ffffffffffffffffffffffffffffffffffffffff169050600073ffffffffffffffffffffffffffffffffffffffff168173ffffffffffffffffffffffffffffffffffffffff1614156113a8576040517f08c379a000000000000000000000000000000000000000000000000000000000815260040161139f90614328565b60405180910390fd5b80915050919050565b6000600c6000838152602001908152602001600020600101549050919050565b60006113dc826112ff565b90508273ffffffffffffffffffffffffffffffffffffffff166016600084815260200190815260200160002060009054906101000a900473ffffffffffffffffffffffffffffffffffffffff1673ffffffffffffffffffffffffffffffffffffffff161415611480576040517f08c379a000000000000000000000000000000000000000000000000000000000815260040161147790614208565b60405180910390fd5b8073ffffffffffffffffffffffffffffffffffffffff168373ffffffffffffffffffffffffffffffffffffffff16146114ee576040517f08c379a00000000000000000000000000000000000000000000000000000000081526004016114e590614448565b60405180910390fd5b826016600084815260200190815260200160002060006101000a81548173ffffffffffffffffffffffffffffffffffffffff021916908373ffffffffffffffffffffffffffffffffffffffff160217905550601782908060018154018082558091505090600182039060005260206000200160009091929091909150555060016018600082825401925050819055507f473143fbc5eac9f496272408e704b4ab0136ed56a4b525e3f3919ffe96ffc93583836040516115ae929190614054565b60405180910390a1505050565b60008073ffffffffffffffffffffffffffffffffffffffff168273ffffffffffffffffffffffffffffffffffffffff16141561162c576040517f08c379a000000000000000000000000000000000000000000000000000000000815260040161162390614308565b60405180910390fd5b611673600360008473ffffffffffffffffffffffffffffffffffffffff1673ffffffffffffffffffffffffffffffffffffffff1681526020019081526020016000206124ef565b9050919050565b601560009054906101000a900473ffffffffffffffffffffffffffffffffffffffff1681565b6000601854905090565b3373ffffffffffffffffffffffffffffffffffffffff16601060009054906101000a900473ffffffffffffffffffffffffffffffffffffffff1673ffffffffffffffffffffffffffffffffffffffff161461173a576040517f08c379a0000000000000000000000000000000000000000000000000000000008152600401611731906142c8565b60405180910390fd5b6000600d60008373ffffffffffffffffffffffffffffffffffffffff1673ffffffffffffffffffffffffffffffffffffffff16815260200190815260200160002060006101000a81548160ff02191690831515021790555050565b6000601060009054906101000a900473ffffffffffffffffffffffffffffffffffffffff16905090565b8273ffffffffffffffffffffffffffffffffffffffff163373ffffffffffffffffffffffffffffffffffffffff1614806118465750601560009054906101000a900473ffffffffffffffffffffffffffffffffffffffff1673ffffffffffffffffffffffffffffffffffffffff163373ffffffffffffffffffffffffffffffffffffffff16145b611885576040517f08c379a000000000000000000000000000000000000000000000000000000000815260040161187c90614408565b60405180910390fd5b611890838383612405565b7fddf252ad1be2c89b69c2b068fc378daa952ba7f163c4a11628f55a4df523b3ef8383836040516118c39392919061401d565b60405180910390a1505050565b6060600a8054600181600116156101000203166002900480601f0160208091040260200160405190810160405280929190818152602001828054600181600116156101000203166002900480156119685780601f1061193d57610100808354040283529160200191611968565b820191906000526020600020905b81548152906001019060200180831161194b57829003601f168201915b5050505050905090565b60405180606001604052808473ffffffffffffffffffffffffffffffffffffffff16815260200183815260200182815250600c6000600e54815260200190815260200160002060008201518160000160006101000a81548173ffffffffffffffffffffffffffffffffffffffff021916908373ffffffffffffffffffffffffffffffffffffffff160217905550602082015181600101556040820151816002019080519060200190611a25929190612e2c565b509050508260116000600e54815260200190815260200160002060006101000a81548173ffffffffffffffffffffffffffffffffffffffff021916908373ffffffffffffffffffffffffffffffffffffffff160217905550611ac4601260008573ffffffffffffffffffffffffffffffffffffffff1673ffffffffffffffffffffffffffffffffffffffff1681526020019081526020016000206124fd565b611acc612513565b7f06acdc615e0b6df2984444b78654ef89855fead2ca37b1d70464c0e7827590e2838383604051611aff939291906140bb565b60405180910390a1505050565b3373ffffffffffffffffffffffffffffffffffffffff168273ffffffffffffffffffffffffffffffffffffffff161415611b7b576040517f08c379a0000000000000000000000000000000000000000000000000000000008152600401611b7290614248565b60405180910390fd5b80600460003373ffffffffffffffffffffffffffffffffffffffff1673ffffffffffffffffffffffffffffffffffffffff16815260200190815260200160002060008473ffffffffffffffffffffffffffffffffffffffff1673ffffffffffffffffffffffffffffffffffffffff16815260200190815260200160002060006101000a81548160ff0219169083151502179055508173ffffffffffffffffffffffffffffffffffffffff163373ffffffffffffffffffffffffffffffffffffffff167f17307eab39ab6107e8899845ad3d59bd9653f200f220920489ca2b5937696c3183604051611c6c919061414b565b60405180910390a35050565b60178181548110611c8557fe5b906000526020600020016000915090505481565b60008090505b8251811015611d4257611cb4336014546124bb565b6040518060600160405280838152602001848381518110611cd157fe5b60200260200101518152602001601454815250601360006014548152602001908152602001600020600082015181600001556020820151816001019080519060200190611d1f929190612e2c565b5060408201518160020155905050611d356124dc565b8080600101915050611c9f565b507f3812fb3dcfb9c40976068020df279cd83c1455285c51961e648c3ea3228b114f8282604051611d7492919061411b565b60405180910390a15050565b60116020528060005260406000206000915054906101000a900473ffffffffffffffffffffffffffffffffffffffff1681565b611dbe848484610d9a565b611dca84848484612526565b611e09576040517f08c379a0000000000000000000000000000000000000000000000000000000008152600401611e00906141a8565b60405180910390fd5b50505050565b601060009054906101000a900473ffffffffffffffffffffffffffffffffffffffff1681565b6060611e40826122b5565b611e7f576040517f08c379a0000000000000000000000000000000000000000000000000000000008152600401611e76906143a8565b60405180910390fd5b600b60008381526020019081526020016000208054600181600116156101000203166002900480601f016020809104026020016040519081016040528092919081815260200182805460018160011615610100020316600290048015611f265780601f10611efb57610100808354040283529160200191611f26565b820191906000526020600020905b815481529060010190602001808311611f0957829003601f168201915b50505050509050919050565b3373ffffffffffffffffffffffffffffffffffffffff16601060009054906101000a900473ffffffffffffffffffffffffffffffffffffffff1673ffffffffffffffffffffffffffffffffffffffff1614611fc2576040517f08c379a0000000000000000000000000000000000000000000000000000000008152600401611fb9906142c8565b60405180910390fd5b6001600d60008373ffffffffffffffffffffffffffffffffffffffff1673ffffffffffffffffffffffffffffffffffffffff16815260200190815260200160002060006101000a81548160ff02191690831515021790555061202261263d565b50565b60145481565b600d6020528060005260406000206000915054906101000a900460ff1681565b60006016600083815260200190815260200160002060009054906101000a900473ffffffffffffffffffffffffffffffffffffffff169050919050565b6000600460008473ffffffffffffffffffffffffffffffffffffffff1673ffffffffffffffffffffffffffffffffffffffff16815260200190815260200160002060008373ffffffffffffffffffffffffffffffffffffffff1673ffffffffffffffffffffffffffffffffffffffff16815260200190815260200160002060009054906101000a900460ff16905092915050565b60008073ffffffffffffffffffffffffffffffffffffffff16601060009054906101000a900473ffffffffffffffffffffffffffffffffffffffff1673ffffffffffffffffffffffffffffffffffffffff1614156121af576040517f08c379a00000000000000000000000000000000000000000000000000000000081526004016121a6906143e8565b60405180910390fd5b6121f6601260008473ffffffffffffffffffffffffffffffffffffffff1673ffffffffffffffffffffffffffffffffffffffff1681526020019081526020016000206124ef565b9050919050565b60008090505b81518110156122375761222a848484848151811061221d57fe5b6020026020010151612429565b8080600101915050612203565b507f944ff1e3859e71e7e76a8e77f2f9871b1ea12bc168118ebd27618c7095b31d7383838360405161226b93929190613fdf565b60405180910390a1505050565b60006011600083815260200190815260200160002060009054906101000a900473ffffffffffffffffffffffffffffffffffffffff169050919050565b6000806001600084815260200190815260200160002060009054906101000a900473ffffffffffffffffffffffffffffffffffffffff169050600073ffffffffffffffffffffffffffffffffffffffff168173ffffffffffffffffffffffffffffffffffffffff161415915050919050565b6000612332826122b5565b612371576040517f08c379a0000000000000000000000000000000000000000000000000000000008152600401612368906142a8565b60405180910390fd5b600061237c836112ff565b90508073ffffffffffffffffffffffffffffffffffffffff168473ffffffffffffffffffffffffffffffffffffffff1614806123eb57508373ffffffffffffffffffffffffffffffffffffffff166123d384610a63565b73ffffffffffffffffffffffffffffffffffffffff16145b806123fc57506123fb8185612088565b5b91505092915050565b612410838383612650565b61241a838261287f565b6124248282612a1d565b505050565b61244483838360405180602001604052806000815250611db3565b505050565b6000806016600084815260200190815260200160002060009054906101000a900473ffffffffffffffffffffffffffffffffffffffff169050600073ffffffffffffffffffffffffffffffffffffffff168173ffffffffffffffffffffffffffffffffffffffff161415915050919050565b6124c58282612ae4565b6124cf8282612a1d565b6124d881612c96565b5050565b6001601460008282540192505081905550565b600081600001549050919050565b6001816000016000828254019250508190555050565b6001600e60008282540192505081905550565b60006125478473ffffffffffffffffffffffffffffffffffffffff16612ce2565b6125545760019050612635565b60008473ffffffffffffffffffffffffffffffffffffffff1663150b7a02338887876040518563ffffffff1660e01b81526004016125959493929190613f93565b602060405180830381600087803b1580156125af57600080fd5b505af11580156125c3573d6000803e3d6000fd5b505050506040513d601f19601f820116820180604052506125e7919081019061348c565b905063150b7a0260e01b7bffffffffffffffffffffffffffffffffffffffffffffffffffffffff1916817bffffffffffffffffffffffffffffffffffffffffffffffffffffffff1916149150505b949350505050565b6001600f60008282540192505081905550565b8273ffffffffffffffffffffffffffffffffffffffff16612670826112ff565b73ffffffffffffffffffffffffffffffffffffffff16146126c6576040517f08c379a00000000000000000000000000000000000000000000000000000000081526004016126bd90614388565b60405180910390fd5b600073ffffffffffffffffffffffffffffffffffffffff168273ffffffffffffffffffffffffffffffffffffffff161415612736576040517f08c379a000000000000000000000000000000000000000000000000000000000815260040161272d90614228565b60405180910390fd5b61273f81612cf5565b612786600360008573ffffffffffffffffffffffffffffffffffffffff1673ffffffffffffffffffffffffffffffffffffffff168152602001908152602001600020612db3565b6127cd600360008473ffffffffffffffffffffffffffffffffffffffff1673ffffffffffffffffffffffffffffffffffffffff1681526020019081526020016000206124fd565b816001600083815260200190815260200160002060006101000a81548173ffffffffffffffffffffffffffffffffffffffff021916908373ffffffffffffffffffffffffffffffffffffffff160217905550808273ffffffffffffffffffffffffffffffffffffffff168473ffffffffffffffffffffffffffffffffffffffff167fddf252ad1be2c89b69c2b068fc378daa952ba7f163c4a11628f55a4df523b3ef60405160405180910390a4505050565b60006128d76001600560008673ffffffffffffffffffffffffffffffffffffffff1673ffffffffffffffffffffffffffffffffffffffff16815260200190815260200160002080549050612dd690919063ffffffff16565b90506000600660008481526020019081526020016000205490508181146129c4576000600560008673ffffffffffffffffffffffffffffffffffffffff1673ffffffffffffffffffffffffffffffffffffffff168152602001908152602001600020838154811061294457fe5b9060005260206000200154905080600560008773ffffffffffffffffffffffffffffffffffffffff1673ffffffffffffffffffffffffffffffffffffffff168152602001908152602001600020838154811061299c57fe5b9060005260206000200181905550816006600083815260200190815260200160002081905550505b600560008573ffffffffffffffffffffffffffffffffffffffff1673ffffffffffffffffffffffffffffffffffffffff168152602001908152602001600020805480919060019003612a169190612eac565b5050505050565b600560008373ffffffffffffffffffffffffffffffffffffffff1673ffffffffffffffffffffffffffffffffffffffff168152602001908152602001600020805490506006600083815260200190815260200160002081905550600560008373ffffffffffffffffffffffffffffffffffffffff1673ffffffffffffffffffffffffffffffffffffffff1681526020019081526020016000208190806001815401808255809150509060018203906000526020600020016000909192909190915055505050565b600073ffffffffffffffffffffffffffffffffffffffff168273ffffffffffffffffffffffffffffffffffffffff161415612b54576040517f08c379a0000000000000000000000000000000000000000000000000000000008152600401612b4b90614348565b60405180910390fd5b612b5d816122b5565b15612b9d576040517f08c379a0000000000000000000000000000000000000000000000000000000008152600401612b94906141c8565b60405180910390fd5b816001600083815260200190815260200160002060006101000a81548173ffffffffffffffffffffffffffffffffffffffff021916908373ffffffffffffffffffffffffffffffffffffffff160217905550612c36600360008473ffffffffffffffffffffffffffffffffffffffff1673ffffffffffffffffffffffffffffffffffffffff1681526020019081526020016000206124fd565b808273ffffffffffffffffffffffffffffffffffffffff16600073ffffffffffffffffffffffffffffffffffffffff167fddf252ad1be2c89b69c2b068fc378daa952ba7f163c4a11628f55a4df523b3ef60405160405180910390a45050565b6007805490506008600083815260200190815260200160002081905550600781908060018154018082558091505090600182039060005260206000200160009091929091909150555050565b600080823b905060008111915050919050565b600073ffffffffffffffffffffffffffffffffffffffff166002600083815260200190815260200160002060009054906101000a900473ffffffffffffffffffffffffffffffffffffffff1673ffffffffffffffffffffffffffffffffffffffff1614612db05760006002600083815260200190815260200160002060006101000a81548173ffffffffffffffffffffffffffffffffffffffff021916908373ffffffffffffffffffffffffffffffffffffffff1602179055505b50565b612dcb60018260000154612dd690919063ffffffff16565b816000018190555050565b600082821115612e1b576040517f08c379a0000000000000000000000000000000000000000000000000000000008152600401612e1290614288565b60405180910390fd5b600082840390508091505092915050565b828054600181600116156101000203166002900490600052602060002090601f016020900481019282601f10612e6d57805160ff1916838001178555612e9b565b82800160010185558215612e9b579182015b82811115612e9a578251825591602001919060010190612e7f565b5b509050612ea89190612ed8565b5090565b815481835581811115612ed357818360005260206000209182019101612ed29190612ed8565b5b505050565b612efa91905b80821115612ef6576000816000905550600101612ede565b5090565b90565b600081359050612f0c81614785565b92915050565b600082601f830112612f2357600080fd5b8135612f36612f31826144ee565b6144c1565b9150818183526020840193506020810190508360005b83811015612f7c5781358601612f62888261309c565b845260208401935060208301925050600181019050612f4c565b5050505092915050565b600082601f830112612f9757600080fd5b8135612faa612fa582614516565b6144c1565b91508181835260208401935060208101905083856020840282011115612fcf57600080fd5b60005b83811015612fff5781612fe58882613144565b845260208401935060208301925050600181019050612fd2565b5050505092915050565b6000813590506130188161479c565b92915050565b60008135905061302d816147b3565b92915050565b600081519050613042816147b3565b92915050565b600082601f83011261305957600080fd5b813561306c6130678261453e565b6144c1565b9150808252602083016020830185838301111561308857600080fd5b613093838284614732565b50505092915050565b600082601f8301126130ad57600080fd5b81356130c06130bb8261456a565b6144c1565b915080825260208301602083018583830111156130dc57600080fd5b6130e7838284614732565b50505092915050565b600082601f83011261310157600080fd5b813561311461310f82614596565b6144c1565b9150808252602083016020830185838301111561313057600080fd5b61313b838284614732565b50505092915050565b600081359050613153816147ca565b92915050565b60006020828403121561316b57600080fd5b600061317984828501612efd565b91505092915050565b6000806040838503121561319557600080fd5b60006131a385828601612efd565b92505060206131b485828601612efd565b9150509250929050565b6000806000606084860312156131d357600080fd5b60006131e186828701612efd565b93505060206131f286828701612efd565b925050604084013567ffffffffffffffff81111561320f57600080fd5b61321b86828701612f86565b9150509250925092565b60008060006060848603121561323a57600080fd5b600061324886828701612efd565b935050602061325986828701612efd565b925050604061326a86828701613144565b9150509250925092565b6000806000806080858703121561328a57600080fd5b600061329887828801612efd565b94505060206132a987828801612efd565b93505060406132ba87828801613144565b925050606085013567ffffffffffffffff8111156132d757600080fd5b6132e387828801613048565b91505092959194509250565b6000806040838503121561330257600080fd5b600061331085828601612efd565b925050602061332185828601613009565b9150509250929050565b6000806040838503121561333e57600080fd5b600061334c85828601612efd565b925050602061335d85828601613144565b9150509250929050565b60008060006060848603121561337c57600080fd5b600061338a86828701612efd565b935050602061339b86828701613144565b925050604084013567ffffffffffffffff8111156133b857600080fd5b6133c4868287016130f0565b9150509250925092565b6000602082840312156133e057600080fd5b600082013567ffffffffffffffff8111156133fa57600080fd5b61340684828501612f12565b91505092915050565b6000806040838503121561342257600080fd5b600083013567ffffffffffffffff81111561343c57600080fd5b61344885828601612f12565b925050602061345985828601613144565b9150509250929050565b60006020828403121561347557600080fd5b60006134838482850161301e565b91505092915050565b60006020828403121561349e57600080fd5b60006134ac84828501613033565b91505092915050565b6000602082840312156134c757600080fd5b60006134d584828501613144565b91505092915050565b60006134ea838361367c565b905092915050565b60006134fe8383613f5a565b60208301905092915050565b613513816146fc565b82525050565b61352281614688565b82525050565b6000613533826145e2565b61353d8185614633565b93508360208202850161354f856145c2565b8060005b8581101561358b578484038952815161356c85826134de565b945061357783614619565b925060208a01995050600181019050613553565b50829750879550505050505092915050565b60006135a8826145ed565b6135b28185614644565b93506135bd836145d2565b8060005b838110156135ee5781516135d588826134f2565b97506135e083614626565b9250506001810190506135c1565b5085935050505092915050565b6136048161469a565b82525050565b6000613615826145f8565b61361f8185614655565b935061362f818560208601614741565b61363881614774565b840191505092915050565b600061364e8261460e565b6136588185614677565b9350613668818560208601614741565b61367181614774565b840191505092915050565b600061368782614603565b6136918185614666565b93506136a1818560208601614741565b6136aa81614774565b840191505092915050565b60006136c082614603565b6136ca8185614677565b93506136da818560208601614741565b6136e381614774565b840191505092915050565b60006136fb602b83614677565b91507f455243373231456e756d657261626c653a206f776e657220696e646578206f7560008301527f74206f6620626f756e64730000000000000000000000000000000000000000006020830152604082019050919050565b6000613761603283614677565b91507f4552433732313a207472616e7366657220746f206e6f6e20455243373231526560008301527f63656976657220696d706c656d656e74657200000000000000000000000000006020830152604082019050919050565b60006137c7601c83614677565b91507f4552433732313a20746f6b656e20616c7265616479206d696e746564000000006000830152602082019050919050565b6000613807602683614677565b91507f5469636b6574206973206e6f742073656c6c206f6e20746865206d6172656b6560008301527f74706c61636500000000000000000000000000000000000000000000000000006020830152604082019050919050565b600061386d602183614677565b91507f5469636b657420616c7265616479206f6e20746865206d61726b6574706c616360008301527f65000000000000000000000000000000000000000000000000000000000000006020830152604082019050919050565b60006138d3602483614677565b91507f4552433732313a207472616e7366657220746f20746865207a65726f2061646460008301527f72657373000000000000000000000000000000000000000000000000000000006020830152604082019050919050565b6000613939601983614677565b91507f4552433732313a20617070726f766520746f2063616c6c6572000000000000006000830152602082019050919050565b6000613979602583614677565b91507f4552433732313a206275796572206973206e6f7420746865207469636b65742060008301527f6f776e65720000000000000000000000000000000000000000000000000000006020830152604082019050919050565b60006139df601e83614677565b91507f536166654d6174683a207375627472616374696f6e206f766572666c6f7700006000830152602082019050919050565b6000613a1f602c83614677565b91507f4552433732313a206f70657261746f7220717565727920666f72206e6f6e657860008301527f697374656e7420746f6b656e00000000000000000000000000000000000000006020830152604082019050919050565b6000613a85601583614677565b91507f73656e646572206973206e6f742061206f776e657200000000000000000000006000830152602082019050919050565b6000613ac5603883614677565b91507f4552433732313a20617070726f76652063616c6c6572206973206e6f74206f7760008301527f6e6572206e6f7220617070726f76656420666f7220616c6c00000000000000006020830152604082019050919050565b6000613b2b602a83614677565b91507f4552433732313a2062616c616e636520717565727920666f7220746865207a6560008301527f726f2061646472657373000000000000000000000000000000000000000000006020830152604082019050919050565b6000613b91602983614677565b91507f4552433732313a206f776e657220717565727920666f72206e6f6e657869737460008301527f656e7420746f6b656e00000000000000000000000000000000000000000000006020830152604082019050919050565b6000613bf7602083614677565b91507f4552433732313a206d696e7420746f20746865207a65726f20616464726573736000830152602082019050919050565b6000613c37602c83614677565b91507f4552433732313a20617070726f76656420717565727920666f72206e6f6e657860008301527f697374656e7420746f6b656e00000000000000000000000000000000000000006020830152604082019050919050565b6000613c9d602983614677565b91507f4552433732313a207472616e73666572206f6620746f6b656e2074686174206960008301527f73206e6f74206f776e00000000000000000000000000000000000000000000006020830152604082019050919050565b6000613d03602f83614677565b91507f4552433732314d657461646174613a2055524920717565727920666f72206e6f60008301527f6e6578697374656e7420746f6b656e00000000000000000000000000000000006020830152604082019050919050565b6000613d69602183614677565b91507f4552433732313a20617070726f76616c20746f2063757272656e74206f776e6560008301527f72000000000000000000000000000000000000000000000000000000000000006020830152604082019050919050565b6000613dcf602983614677565b91507f4576656e743a2062616c616e636520717565727920666f7220746865207a657260008301527f6f206164647265737300000000000000000000000000000000000000000000006020830152604082019050919050565b6000613e35603183614677565b91507f4552433732313a207472616e736665722063616c6c6572206973206e6f74206f60008301527f776e6572206e6f7220617070726f7665640000000000000000000000000000006020830152604082019050919050565b6000613e9b602c83614677565b91507f455243373231456e756d657261626c653a20676c6f62616c20696e646578206f60008301527f7574206f6620626f756e647300000000000000000000000000000000000000006020830152604082019050919050565b6000613f01602683614677565b91507f4552433732313a2073656c6c6572206973206e6f7420746865207469636b657460008301527f206f776e657200000000000000000000000000000000000000000000000000006020830152604082019050919050565b613f63816146f2565b82525050565b613f72816146f2565b82525050565b6000602082019050613f8d6000830184613519565b92915050565b6000608082019050613fa8600083018761350a565b613fb56020830186613519565b613fc26040830185613f69565b8181036060830152613fd4818461360a565b905095945050505050565b6000606082019050613ff46000830186613519565b6140016020830185613519565b8181036040830152614013818461359d565b9050949350505050565b60006060820190506140326000830186613519565b61403f6020830185613519565b61404c6040830184613f69565b949350505050565b60006040820190506140696000830185613519565b6140766020830184613f69565b9392505050565b60006060820190506140926000830186613519565b61409f6020830185613f69565b81810360408301526140b181846136b5565b9050949350505050565b60006060820190506140d06000830186613519565b6140dd6020830185613f69565b81810360408301526140ef8184613643565b9050949350505050565b600060208201905081810360008301526141138184613528565b905092915050565b600060408201905081810360008301526141358185613528565b90506141446020830184613f69565b9392505050565b600060208201905061416060008301846135fb565b92915050565b600060208201905081810360008301526141808184613643565b905092915050565b600060208201905081810360008301526141a1816136ee565b9050919050565b600060208201905081810360008301526141c181613754565b9050919050565b600060208201905081810360008301526141e1816137ba565b9050919050565b60006020820190508181036000830152614201816137fa565b9050919050565b6000602082019050818103600083015261422181613860565b9050919050565b60006020820190508181036000830152614241816138c6565b9050919050565b600060208201905081810360008301526142618161392c565b9050919050565b600060208201905081810360008301526142818161396c565b9050919050565b600060208201905081810360008301526142a1816139d2565b9050919050565b600060208201905081810360008301526142c181613a12565b9050919050565b600060208201905081810360008301526142e181613a78565b9050919050565b6000602082019050818103600083015261430181613ab8565b9050919050565b6000602082019050818103600083015261432181613b1e565b9050919050565b6000602082019050818103600083015261434181613b84565b9050919050565b6000602082019050818103600083015261436181613bea565b9050919050565b6000602082019050818103600083015261438181613c2a565b9050919050565b600060208201905081810360008301526143a181613c90565b9050919050565b600060208201905081810360008301526143c181613cf6565b9050919050565b600060208201905081810360008301526143e181613d5c565b9050919050565b6000602082019050818103600083015261440181613dc2565b9050919050565b6000602082019050818103600083015261442181613e28565b9050919050565b6000602082019050818103600083015261444181613e8e565b9050919050565b6000602082019050818103600083015261446181613ef4565b9050919050565b600060208201905061447d6000830184613f69565b92915050565b60006060820190506144986000830186613f69565b81810360208301526144aa81856136b5565b90506144b96040830184613f69565b949350505050565b6000604051905081810181811067ffffffffffffffff821117156144e457600080fd5b8060405250919050565b600067ffffffffffffffff82111561450557600080fd5b602082029050602081019050919050565b600067ffffffffffffffff82111561452d57600080fd5b602082029050602081019050919050565b600067ffffffffffffffff82111561455557600080fd5b601f19601f8301169050602081019050919050565b600067ffffffffffffffff82111561458157600080fd5b601f19601f8301169050602081019050919050565b600067ffffffffffffffff8211156145ad57600080fd5b601f19601f8301169050602081019050919050565b6000819050602082019050919050565b6000819050602082019050919050565b600081519050919050565b600081519050919050565b600081519050919050565b600081519050919050565b600081519050919050565b6000602082019050919050565b6000602082019050919050565b600082825260208201905092915050565b600082825260208201905092915050565b600082825260208201905092915050565b600082825260208201905092915050565b600082825260208201905092915050565b6000614693826146d2565b9050919050565b60008115159050919050565b60007fffffffff0000000000000000000000000000000000000000000000000000000082169050919050565b600073ffffffffffffffffffffffffffffffffffffffff82169050919050565b6000819050919050565b60006147078261470e565b9050919050565b600061471982614720565b9050919050565b600061472b826146d2565b9050919050565b82818337600083830152505050565b60005b8381101561475f578082015181840152602081019050614744565b8381111561476e576000848401525b50505050565b6000601f19601f8301169050919050565b61478e81614688565b811461479957600080fd5b50565b6147a58161469a565b81146147b057600080fd5b50565b6147bc816146a6565b81146147c757600080fd5b50565b6147d3816146f2565b81146147de57600080fd5b5056fea365627a7a7231582043c90e365c52a38fe6fe0fb105d5031e749aa41cbaa0d582b680a3c6a727ab806c6578706572696d656e74616cf564736f6c63430005100040",
  "source": "pragma solidity ^0.5.16;\npragma experimental ABIEncoderV2;\n\nimport \"./ERC721Full.sol\";\nimport \"./Event.sol\";\n\ncontract Ticket is ERC721Full, Event {\n    mapping(uint256 => Ticket) public tickets;\n    // mapping(string => bool) _ticketExists;\n    uint256 public ticketCount = 0;\n    address public ticketContractOwner;\n\n    mapping(uint256 => address) public marketplaceTickets;\n    uint256[] public marketplaceTicketList;\n    uint256 public marketplaceTicketId;\n\n    constructor() public ERC721Full(\"Ticket\", \"TCK\") {\n        ticketContractOwner = msg.sender;\n    }\n\n    struct Ticket {\n        uint256 eventId;\n        string detail;\n        uint256 ticketId;\n    }\n\n\n    event CreateTicketsByEvent(string[] _tickets, uint256 _eventId);\n    event CreateTickets(string[] _tickets);\n    event Transfer(address from, address to, uint256 tokenId);\n    event TransferMulti(address from, address to, uint256[] tokenId);\n    event Trade(address target, uint256 tokenId);\n\n\n    function incrementCount() internal {\n        ticketCount += 1;\n    }\n\n    function getTicketCount() public view returns (uint256) {\n        return ticketCount;\n    }\n\n    function getMarketplaceTicketId() public view returns (uint256) {\n        return marketplaceTicketId;\n    }\n\n    function mint(string[] memory _tickets) public {\n        for (uint256 index = 0; index < _tickets.length; index++) {\n            _mint(msg.sender, ticketCount);\n            tickets[ticketCount] = Ticket(\n                eventId - 1,\n                _tickets[index],\n                ticketCount\n            );\n            incrementCount();\n        }\n        // require(!_ticketExists[_ticket]);\n        emit CreateTickets(_tickets);\n        // _ticketExists[_ticket] = true;\n    }\n\n    function mintByEvent(string[] memory _tickets, uint256 _eventId) public {\n        for (uint256 index = 0; index < _tickets.length; index++) {\n            _mint(msg.sender, ticketCount);\n            tickets[ticketCount] = Ticket(\n                _eventId,\n                _tickets[index],\n                ticketCount\n            );\n            incrementCount();\n        }\n\n        emit CreateTicketsByEvent(_tickets, _eventId);\n    }\n\n    function multiTransferFrom(\n        address _from,\n        address _to,\n        uint256[] memory _tokenIds\n    ) public {\n        for (uint256 index = 0; index < _tokenIds.length; index++) {\n            super.safeTransferFrom(_from, _to, _tokenIds[index]);\n        }\n\n        emit TransferMulti(_from, _to, _tokenIds);\n    }\n\n    function safeTransferFrom(\n        address _from,\n        address _to,\n        uint256 _tokenId\n    ) public {\n        super.safeTransferFrom(_from, _to, _tokenId);\n\n        emit Transfer(_from, _to, _tokenId);\n    }\n    \n    function sellTicketsOnMarketplace(address seller, uint256 ticketId) public {\n        address owner = super.ownerOf(ticketId);\n        require(marketplaceTickets[ticketId] != seller, \"Ticket already on the marketplace\");\n        require(seller == owner, \"ERC721: seller is not the ticket owner\");\n        marketplaceTickets[ticketId] = seller;\n        marketplaceTicketList.push(ticketId);\n        marketplaceTicketId += 1;\n        emit Trade(seller, ticketId);\n    }\n\n    function buyTicketOnMarketplace(address buyer, uint256 ticketId) public {\n        address owner = ownerOf(ticketId);\n        require(buyer != owner, \"ERC721: buyer is not the ticket owner\");\n        require(_existMarketplaceTicket(ticketId), \"Ticket is not sell on the mareketplace\");\n        transferFromByContractOwner(owner, buyer, ticketId);\n        marketplaceTickets[ticketId] = address(0);\n        emit Trade(buyer, ticketId);\n    }\n\n    function _existMarketplaceTicket(uint256 ticketId) internal view returns (bool) {\n        address owner = marketplaceTickets[ticketId];\n        return owner != address(0);\n    }\n\n    function transferFromByContractOwner(address from, address to, uint256 tokenId) public {\n        require(msg.sender == from || msg.sender == ticketContractOwner, \"ERC721: transfer caller is not owner nor approved\");\n\n        super._transferFrom(from, to, tokenId);\n        emit Transfer(from, to, tokenId);\n    }\n\n    function getTicketOnMarketplace(uint256 ticketId) public view returns (address) {\n        return marketplaceTickets[ticketId];\n    }\n}",
  "sourcePath": "/Users/timcheng/personal/fyp/smart-ticket-blockchain/smart-contract/contracts/Ticket.sol",
  "compiler": {
    "name": "solc",
    "version": "0.5.16+commit.9c3226ce.Emscripten.clang"
  },
  "schemaVersion": "3.3.2",
  "updatedAt": "2021-04-15T13:56:49.074Z",
  "networkType": "ethereum",
  "devdoc": {
    "methods": {
      "approve(address,uint256)": {
        "details": "Approves another address to transfer the given token ID The zero address indicates there is no approved address. There can only be one approved address per token at a given time. Can only be called by the token owner or an approved operator.",
        "params": {
          "to": "address to be approved for the given token ID",
          "tokenId": "uint256 ID of the token to be approved"
        }
      },
      "balanceOf(address)": {
        "details": "Gets the balance of the specified address.",
        "params": {
          "owner": "address to query the balance of"
        },
        "return": "uint256 representing the amount owned by the passed address"
      },
      "getApproved(uint256)": {
        "details": "Gets the approved address for a token ID, or zero if no address set Reverts if the token ID does not exist.",
        "params": {
          "tokenId": "uint256 ID of the token to query the approval of"
        },
        "return": "address currently approved for the given token ID"
      },
      "isApprovedForAll(address,address)": {
        "details": "Tells whether an operator is approved by a given owner.",
        "params": {
          "operator": "operator address which you want to query the approval of",
          "owner": "owner address which you want to query the approval of"
        },
        "return": "bool whether the given operator is approved by the given owner"
      },
      "name()": {
        "details": "Gets the token name.",
        "return": "string representing the token name"
      },
      "ownerOf(uint256)": {
        "details": "Gets the owner of the specified token ID.",
        "params": {
          "tokenId": "uint256 ID of the token to query the owner of"
        },
        "return": "address currently marked as the owner of the given token ID"
      },
      "safeTransferFrom(address,address,uint256,bytes)": {
        "details": "Safely transfers the ownership of a given token ID to another address If the target address is a contract, it must implement `onERC721Received`, which is called upon a safe transfer, and return the magic value `bytes4(keccak256(\"onERC721Received(address,address,uint256,bytes)\"))`; otherwise, the transfer is reverted. Requires the msg.sender to be the owner, approved, or operator",
        "params": {
          "_data": "bytes data to send along with a safe transfer check",
          "from": "current owner of the token",
          "to": "address to receive the ownership of the given token ID",
          "tokenId": "uint256 ID of the token to be transferred"
        }
      },
      "setApprovalForAll(address,bool)": {
        "details": "Sets or unsets the approval of a given operator An operator is allowed to transfer all tokens of the sender on their behalf.",
        "params": {
          "approved": "representing the status of the approval to be set",
          "to": "operator address to set the approval"
        }
      },
      "supportsInterface(bytes4)": {
        "details": "See `IERC165.supportsInterface`.     * Time complexity O(1), guaranteed to always use less than 30 000 gas."
      },
      "symbol()": {
        "details": "Gets the token symbol.",
        "return": "string representing the token symbol"
      },
      "tokenByIndex(uint256)": {
        "details": "Gets the token ID at a given index of all the tokens in this contract Reverts if the index is greater or equal to the total number of tokens.",
        "params": {
          "index": "uint256 representing the index to be accessed of the tokens list"
        },
        "return": "uint256 token ID at the given index of the tokens list"
      },
      "tokenOfOwnerByIndex(address,uint256)": {
        "details": "Gets the token ID at a given index of the tokens list of the requested owner.",
        "params": {
          "index": "uint256 representing the index to be accessed of the requested tokens list",
          "owner": "address owning the tokens list to be accessed"
        },
        "return": "uint256 token ID at the given index of the tokens list owned by the requested address"
      },
      "tokenURI(uint256)": {
        "details": "Returns an URI for a given token ID. Throws if the token ID does not exist. May return an empty string.",
        "params": {
          "tokenId": "uint256 ID of the token to query"
        }
      },
      "totalSupply()": {
        "details": "Gets the total amount of tokens stored by the contract.",
        "return": "uint256 representing the total amount of tokens"
      },
      "transferFrom(address,address,uint256)": {
        "details": "Transfers the ownership of a given token ID to another address. Usage of this method is discouraged, use `safeTransferFrom` whenever possible. Requires the msg.sender to be the owner, approved, or operator.",
        "params": {
          "from": "current owner of the token",
          "to": "address to receive the ownership of the given token ID",
          "tokenId": "uint256 ID of the token to be transferred"
        }
      }
    }
  },
  "userdoc": {
    "methods": {}
  }
}