{
  "contractName": "Ticket",
  "abi": [
    {
      "inputs": [],
      "payable": false,
      "stateMutability": "nonpayable",
      "type": "constructor"
    },
    {
      "anonymous": false,
      "inputs": [
        {
          "indexed": true,
          "internalType": "address",
          "name": "owner",
          "type": "address"
        },
        {
          "indexed": true,
          "internalType": "address",
          "name": "approved",
          "type": "address"
        },
        {
          "indexed": true,
          "internalType": "uint256",
          "name": "tokenId",
          "type": "uint256"
        }
      ],
      "name": "Approval",
      "type": "event"
    },
    {
      "anonymous": false,
      "inputs": [
        {
          "indexed": true,
          "internalType": "address",
          "name": "owner",
          "type": "address"
        },
        {
          "indexed": true,
          "internalType": "address",
          "name": "operator",
          "type": "address"
        },
        {
          "indexed": false,
          "internalType": "bool",
          "name": "approved",
          "type": "bool"
        }
      ],
      "name": "ApprovalForAll",
      "type": "event"
    },
    {
      "anonymous": false,
      "inputs": [
        {
          "indexed": false,
          "internalType": "address",
          "name": "_owner",
          "type": "address"
        },
        {
          "indexed": false,
          "internalType": "uint256",
          "name": "_event_id",
          "type": "uint256"
        }
      ],
      "name": "Create",
      "type": "event"
    },
    {
      "anonymous": false,
      "inputs": [
        {
          "indexed": false,
          "internalType": "uint256[]",
          "name": "_tickets",
          "type": "uint256[]"
        }
      ],
      "name": "CreateTickets",
      "type": "event"
    },
    {
      "anonymous": false,
      "inputs": [
        {
          "indexed": false,
          "internalType": "uint256[]",
          "name": "_tickets",
          "type": "uint256[]"
        },
        {
          "indexed": false,
          "internalType": "uint256",
          "name": "_eventId",
          "type": "uint256"
        }
      ],
      "name": "CreateTicketsByEvent",
      "type": "event"
    },
    {
      "anonymous": false,
      "inputs": [
        {
          "indexed": false,
          "internalType": "address",
          "name": "target",
          "type": "address"
        },
        {
          "indexed": false,
          "internalType": "uint256",
          "name": "tokenId",
          "type": "uint256"
        }
      ],
      "name": "Trade",
      "type": "event"
    },
    {
      "anonymous": false,
      "inputs": [
        {
          "indexed": false,
          "internalType": "address",
          "name": "from",
          "type": "address"
        },
        {
          "indexed": false,
          "internalType": "address",
          "name": "to",
          "type": "address"
        },
        {
          "indexed": false,
          "internalType": "uint256",
          "name": "tokenId",
          "type": "uint256"
        }
      ],
      "name": "Transfer",
      "type": "event"
    },
    {
      "anonymous": false,
      "inputs": [
        {
          "indexed": false,
          "internalType": "address",
          "name": "from",
          "type": "address"
        },
        {
          "indexed": false,
          "internalType": "address",
          "name": "to",
          "type": "address"
        },
        {
          "indexed": false,
          "internalType": "uint256[]",
          "name": "tokenId",
          "type": "uint256[]"
        }
      ],
      "name": "TransferMulti",
      "type": "event"
    },
    {
      "constant": false,
      "inputs": [
        {
          "internalType": "address",
          "name": "_approve",
          "type": "address"
        }
      ],
      "name": "addApproval",
      "outputs": [],
      "payable": false,
      "stateMutability": "nonpayable",
      "type": "function"
    },
    {
      "constant": false,
      "inputs": [
        {
          "internalType": "address",
          "name": "to",
          "type": "address"
        },
        {
          "internalType": "uint256",
          "name": "tokenId",
          "type": "uint256"
        }
      ],
      "name": "approve",
      "outputs": [],
      "payable": false,
      "stateMutability": "nonpayable",
      "type": "function"
    },
    {
      "constant": true,
      "inputs": [],
      "name": "approveId",
      "outputs": [
        {
          "internalType": "uint256",
          "name": "",
          "type": "uint256"
        }
      ],
      "payable": false,
      "stateMutability": "view",
      "type": "function"
    },
    {
      "constant": true,
      "inputs": [
        {
          "internalType": "address",
          "name": "",
          "type": "address"
        }
      ],
      "name": "approves",
      "outputs": [
        {
          "internalType": "bool",
          "name": "",
          "type": "bool"
        }
      ],
      "payable": false,
      "stateMutability": "view",
      "type": "function"
    },
    {
      "constant": true,
      "inputs": [
        {
          "internalType": "address",
          "name": "owner",
          "type": "address"
        }
      ],
      "name": "balanceOf",
      "outputs": [
        {
          "internalType": "uint256",
          "name": "",
          "type": "uint256"
        }
      ],
      "payable": false,
      "stateMutability": "view",
      "type": "function"
    },
    {
      "constant": false,
      "inputs": [
        {
          "internalType": "address",
          "name": "_owner",
          "type": "address"
        },
        {
          "internalType": "uint256",
          "name": "_event_id",
          "type": "uint256"
        }
      ],
      "name": "createEvent",
      "outputs": [],
      "payable": false,
      "stateMutability": "nonpayable",
      "type": "function"
    },
    {
      "constant": true,
      "inputs": [],
      "name": "eventContractOwner",
      "outputs": [
        {
          "internalType": "address",
          "name": "",
          "type": "address"
        }
      ],
      "payable": false,
      "stateMutability": "view",
      "type": "function"
    },
    {
      "constant": true,
      "inputs": [],
      "name": "eventId",
      "outputs": [
        {
          "internalType": "uint256",
          "name": "",
          "type": "uint256"
        }
      ],
      "payable": false,
      "stateMutability": "view",
      "type": "function"
    },
    {
      "constant": true,
      "inputs": [
        {
          "internalType": "uint256",
          "name": "",
          "type": "uint256"
        }
      ],
      "name": "eventOwner",
      "outputs": [
        {
          "internalType": "address",
          "name": "",
          "type": "address"
        }
      ],
      "payable": false,
      "stateMutability": "view",
      "type": "function"
    },
    {
      "constant": true,
      "inputs": [
        {
          "internalType": "address",
          "name": "_owner",
          "type": "address"
        }
      ],
      "name": "eventOwnerBalanceOf",
      "outputs": [
        {
          "internalType": "uint256",
          "name": "",
          "type": "uint256"
        }
      ],
      "payable": false,
      "stateMutability": "view",
      "type": "function"
    },
    {
      "constant": true,
      "inputs": [
        {
          "internalType": "uint256",
          "name": "",
          "type": "uint256"
        }
      ],
      "name": "events",
      "outputs": [
        {
          "internalType": "address",
          "name": "owner",
          "type": "address"
        },
        {
          "internalType": "uint256",
          "name": "event_id",
          "type": "uint256"
        }
      ],
      "payable": false,
      "stateMutability": "view",
      "type": "function"
    },
    {
      "constant": true,
      "inputs": [],
      "name": "getApproveId",
      "outputs": [
        {
          "internalType": "uint256",
          "name": "",
          "type": "uint256"
        }
      ],
      "payable": false,
      "stateMutability": "view",
      "type": "function"
    },
    {
      "constant": true,
      "inputs": [
        {
          "internalType": "uint256",
          "name": "tokenId",
          "type": "uint256"
        }
      ],
      "name": "getApproved",
      "outputs": [
        {
          "internalType": "address",
          "name": "",
          "type": "address"
        }
      ],
      "payable": false,
      "stateMutability": "view",
      "type": "function"
    },
    {
      "constant": true,
      "inputs": [
        {
          "internalType": "uint256",
          "name": "_eventId",
          "type": "uint256"
        }
      ],
      "name": "getEvent",
      "outputs": [
        {
          "internalType": "uint256",
          "name": "",
          "type": "uint256"
        }
      ],
      "payable": false,
      "stateMutability": "view",
      "type": "function"
    },
    {
      "constant": true,
      "inputs": [],
      "name": "getEventContractOwner",
      "outputs": [
        {
          "internalType": "address",
          "name": "",
          "type": "address"
        }
      ],
      "payable": false,
      "stateMutability": "view",
      "type": "function"
    },
    {
      "constant": true,
      "inputs": [],
      "name": "getEventId",
      "outputs": [
        {
          "internalType": "uint256",
          "name": "",
          "type": "uint256"
        }
      ],
      "payable": false,
      "stateMutability": "view",
      "type": "function"
    },
    {
      "constant": true,
      "inputs": [
        {
          "internalType": "uint256",
          "name": "_eventId",
          "type": "uint256"
        }
      ],
      "name": "getEventOwner",
      "outputs": [
        {
          "internalType": "address",
          "name": "",
          "type": "address"
        }
      ],
      "payable": false,
      "stateMutability": "view",
      "type": "function"
    },
    {
      "constant": true,
      "inputs": [
        {
          "internalType": "address",
          "name": "_approve",
          "type": "address"
        }
      ],
      "name": "isApproval",
      "outputs": [
        {
          "internalType": "bool",
          "name": "",
          "type": "bool"
        }
      ],
      "payable": false,
      "stateMutability": "view",
      "type": "function"
    },
    {
      "constant": true,
      "inputs": [
        {
          "internalType": "address",
          "name": "owner",
          "type": "address"
        },
        {
          "internalType": "address",
          "name": "operator",
          "type": "address"
        }
      ],
      "name": "isApprovedForAll",
      "outputs": [
        {
          "internalType": "bool",
          "name": "",
          "type": "bool"
        }
      ],
      "payable": false,
      "stateMutability": "view",
      "type": "function"
    },
    {
      "constant": true,
      "inputs": [],
      "name": "marketplaceTicketId",
      "outputs": [
        {
          "internalType": "uint256",
          "name": "",
          "type": "uint256"
        }
      ],
      "payable": false,
      "stateMutability": "view",
      "type": "function"
    },
    {
      "constant": true,
      "inputs": [
        {
          "internalType": "uint256",
          "name": "",
          "type": "uint256"
        }
      ],
      "name": "marketplaceTicketList",
      "outputs": [
        {
          "internalType": "uint256",
          "name": "",
          "type": "uint256"
        }
      ],
      "payable": false,
      "stateMutability": "view",
      "type": "function"
    },
    {
      "constant": true,
      "inputs": [
        {
          "internalType": "uint256",
          "name": "",
          "type": "uint256"
        }
      ],
      "name": "marketplaceTickets",
      "outputs": [
        {
          "internalType": "address",
          "name": "",
          "type": "address"
        }
      ],
      "payable": false,
      "stateMutability": "view",
      "type": "function"
    },
    {
      "constant": true,
      "inputs": [],
      "name": "name",
      "outputs": [
        {
          "internalType": "string",
          "name": "",
          "type": "string"
        }
      ],
      "payable": false,
      "stateMutability": "view",
      "type": "function"
    },
    {
      "constant": true,
      "inputs": [
        {
          "internalType": "uint256",
          "name": "tokenId",
          "type": "uint256"
        }
      ],
      "name": "ownerOf",
      "outputs": [
        {
          "internalType": "address",
          "name": "",
          "type": "address"
        }
      ],
      "payable": false,
      "stateMutability": "view",
      "type": "function"
    },
    {
      "constant": false,
      "inputs": [
        {
          "internalType": "address",
          "name": "_approve",
          "type": "address"
        }
      ],
      "name": "removeApproval",
      "outputs": [],
      "payable": false,
      "stateMutability": "nonpayable",
      "type": "function"
    },
    {
      "constant": false,
      "inputs": [
        {
          "internalType": "address",
          "name": "to",
          "type": "address"
        },
        {
          "internalType": "bool",
          "name": "approved",
          "type": "bool"
        }
      ],
      "name": "setApprovalForAll",
      "outputs": [],
      "payable": false,
      "stateMutability": "nonpayable",
      "type": "function"
    },
    {
      "constant": true,
      "inputs": [
        {
          "internalType": "bytes4",
          "name": "interfaceId",
          "type": "bytes4"
        }
      ],
      "name": "supportsInterface",
      "outputs": [
        {
          "internalType": "bool",
          "name": "",
          "type": "bool"
        }
      ],
      "payable": false,
      "stateMutability": "view",
      "type": "function"
    },
    {
      "constant": true,
      "inputs": [],
      "name": "symbol",
      "outputs": [
        {
          "internalType": "string",
          "name": "",
          "type": "string"
        }
      ],
      "payable": false,
      "stateMutability": "view",
      "type": "function"
    },
    {
      "constant": true,
      "inputs": [],
      "name": "ticketContractOwner",
      "outputs": [
        {
          "internalType": "address",
          "name": "",
          "type": "address"
        }
      ],
      "payable": false,
      "stateMutability": "view",
      "type": "function"
    },
    {
      "constant": true,
      "inputs": [],
      "name": "ticketCount",
      "outputs": [
        {
          "internalType": "uint256",
          "name": "",
          "type": "uint256"
        }
      ],
      "payable": false,
      "stateMutability": "view",
      "type": "function"
    },
    {
      "constant": true,
      "inputs": [
        {
          "internalType": "uint256",
          "name": "",
          "type": "uint256"
        }
      ],
      "name": "tickets",
      "outputs": [
        {
          "internalType": "uint256",
          "name": "eventId",
          "type": "uint256"
        },
        {
          "internalType": "uint256",
          "name": "ticket_id",
          "type": "uint256"
        },
        {
          "internalType": "uint256",
          "name": "ticketId",
          "type": "uint256"
        }
      ],
      "payable": false,
      "stateMutability": "view",
      "type": "function"
    },
    {
      "constant": true,
      "inputs": [
        {
          "internalType": "uint256",
          "name": "index",
          "type": "uint256"
        }
      ],
      "name": "tokenByIndex",
      "outputs": [
        {
          "internalType": "uint256",
          "name": "",
          "type": "uint256"
        }
      ],
      "payable": false,
      "stateMutability": "view",
      "type": "function"
    },
    {
      "constant": true,
      "inputs": [
        {
          "internalType": "address",
          "name": "owner",
          "type": "address"
        },
        {
          "internalType": "uint256",
          "name": "index",
          "type": "uint256"
        }
      ],
      "name": "tokenOfOwnerByIndex",
      "outputs": [
        {
          "internalType": "uint256",
          "name": "",
          "type": "uint256"
        }
      ],
      "payable": false,
      "stateMutability": "view",
      "type": "function"
    },
    {
      "constant": true,
      "inputs": [
        {
          "internalType": "uint256",
          "name": "tokenId",
          "type": "uint256"
        }
      ],
      "name": "tokenURI",
      "outputs": [
        {
          "internalType": "string",
          "name": "",
          "type": "string"
        }
      ],
      "payable": false,
      "stateMutability": "view",
      "type": "function"
    },
    {
      "constant": true,
      "inputs": [],
      "name": "totalSupply",
      "outputs": [
        {
          "internalType": "uint256",
          "name": "",
          "type": "uint256"
        }
      ],
      "payable": false,
      "stateMutability": "view",
      "type": "function"
    },
    {
      "constant": false,
      "inputs": [
        {
          "internalType": "address",
          "name": "from",
          "type": "address"
        },
        {
          "internalType": "address",
          "name": "to",
          "type": "address"
        },
        {
          "internalType": "uint256",
          "name": "tokenId",
          "type": "uint256"
        }
      ],
      "name": "transferFrom",
      "outputs": [],
      "payable": false,
      "stateMutability": "nonpayable",
      "type": "function"
    },
    {
      "constant": true,
      "inputs": [],
      "name": "getTicketCount",
      "outputs": [
        {
          "internalType": "uint256",
          "name": "",
          "type": "uint256"
        }
      ],
      "payable": false,
      "stateMutability": "view",
      "type": "function"
    },
    {
      "constant": true,
      "inputs": [],
      "name": "getMarketplaceTicketId",
      "outputs": [
        {
          "internalType": "uint256",
          "name": "",
          "type": "uint256"
        }
      ],
      "payable": false,
      "stateMutability": "view",
      "type": "function"
    },
    {
      "constant": false,
      "inputs": [
        {
          "internalType": "uint256[]",
          "name": "_tickets",
          "type": "uint256[]"
        }
      ],
      "name": "mint",
      "outputs": [],
      "payable": false,
      "stateMutability": "nonpayable",
      "type": "function"
    },
    {
      "constant": false,
      "inputs": [
        {
          "internalType": "uint256[]",
          "name": "_tickets",
          "type": "uint256[]"
        },
        {
          "internalType": "uint256",
          "name": "_eventId",
          "type": "uint256"
        }
      ],
      "name": "mintByEvent",
      "outputs": [],
      "payable": false,
      "stateMutability": "nonpayable",
      "type": "function"
    },
    {
      "constant": false,
      "inputs": [
        {
          "internalType": "address",
          "name": "_from",
          "type": "address"
        },
        {
          "internalType": "address",
          "name": "_to",
          "type": "address"
        },
        {
          "internalType": "uint256[]",
          "name": "_tokenIds",
          "type": "uint256[]"
        }
      ],
      "name": "multiTransferFrom",
      "outputs": [],
      "payable": false,
      "stateMutability": "nonpayable",
      "type": "function"
    },
    {
      "constant": false,
      "inputs": [
        {
          "internalType": "address",
          "name": "_from",
          "type": "address"
        },
        {
          "internalType": "address",
          "name": "_to",
          "type": "address"
        },
        {
          "internalType": "uint256",
          "name": "_tokenId",
          "type": "uint256"
        }
      ],
      "name": "safeTransferFrom",
      "outputs": [],
      "payable": false,
      "stateMutability": "nonpayable",
      "type": "function"
    },
    {
      "constant": false,
      "inputs": [
        {
          "internalType": "address",
          "name": "from",
          "type": "address"
        },
        {
          "internalType": "address",
          "name": "to",
          "type": "address"
        },
        {
          "internalType": "uint256",
          "name": "tokenId",
          "type": "uint256"
        },
        {
          "internalType": "bytes",
          "name": "_data",
          "type": "bytes"
        }
      ],
      "name": "safeTransferFrom",
      "outputs": [],
      "payable": false,
      "stateMutability": "nonpayable",
      "type": "function"
    },
    {
      "constant": false,
      "inputs": [
        {
          "internalType": "address",
          "name": "seller",
          "type": "address"
        },
        {
          "internalType": "uint256",
          "name": "ticketId",
          "type": "uint256"
        }
      ],
      "name": "sellTicketsOnMarketplace",
      "outputs": [],
      "payable": false,
      "stateMutability": "nonpayable",
      "type": "function"
    },
    {
      "constant": false,
      "inputs": [
        {
          "internalType": "address",
          "name": "buyer",
          "type": "address"
        },
        {
          "internalType": "uint256",
          "name": "ticketId",
          "type": "uint256"
        }
      ],
      "name": "buyTicketOnMarketplace",
      "outputs": [],
      "payable": false,
      "stateMutability": "nonpayable",
      "type": "function"
    },
    {
      "constant": false,
      "inputs": [
        {
          "internalType": "address",
          "name": "from",
          "type": "address"
        },
        {
          "internalType": "address",
          "name": "to",
          "type": "address"
        },
        {
          "internalType": "uint256",
          "name": "tokenId",
          "type": "uint256"
        }
      ],
      "name": "transferFromByContractOwner",
      "outputs": [],
      "payable": false,
      "stateMutability": "nonpayable",
      "type": "function"
    },
    {
      "constant": true,
      "inputs": [
        {
          "internalType": "uint256",
          "name": "ticketId",
          "type": "uint256"
        }
      ],
      "name": "getTicketOnMarketplace",
      "outputs": [
        {
          "internalType": "address",
          "name": "",
          "type": "address"
        }
      ],
      "payable": false,
      "stateMutability": "view",
      "type": "function"
    }
  ],
  "bytecode": "0x60806040526000600e556000600f5560006014553480156200002057600080fd5b506040518060400160405280600681526020017f5469636b657400000000000000000000000000000000000000000000000000008152506040518060400160405280600381526020017f54434b00000000000000000000000000000000000000000000000000000000008152508181620000a76301ffc9a760e01b620001ad60201b60201c565b620000bf6380ac58cd60e01b620001ad60201b60201c565b620000d763780e9d6360e01b620001ad60201b60201c565b8160099080519060200190620000ef92919062000285565b5080600a90805190602001906200010892919062000285565b5062000121635b5e139f60e01b620001ad60201b60201c565b5050505033601060006101000a81548173ffffffffffffffffffffffffffffffffffffffff021916908373ffffffffffffffffffffffffffffffffffffffff16021790555033601560006101000a81548173ffffffffffffffffffffffffffffffffffffffff021916908373ffffffffffffffffffffffffffffffffffffffff160217905550620003a9565b63ffffffff60e01b817bffffffffffffffffffffffffffffffffffffffffffffffffffffffff1916141562000219576040517f08c379a0000000000000000000000000000000000000000000000000000000008152600401620002109062000376565b60405180910390fd5b6001600080837bffffffffffffffffffffffffffffffffffffffffffffffffffffffff19167bffffffffffffffffffffffffffffffffffffffffffffffffffffffff1916815260200190815260200160002060006101000a81548160ff02191690831515021790555050565b828054600181600116156101000203166002900490600052602060002090601f016020900481019282601f10620002c857805160ff1916838001178555620002f9565b82800160010185558215620002f9579182015b82811115620002f8578251825591602001919060010190620002db565b5b5090506200030891906200030c565b5090565b6200033191905b808211156200032d57600081600090555060010162000313565b5090565b90565b600062000343601c8362000398565b91507f4552433136353a20696e76616c696420696e74657266616365206964000000006000830152602082019050919050565b60006020820190508181036000830152620003918162000334565b9050919050565b600082825260208201905092915050565b61424b80620003b96000396000f3fe608060405234801561001057600080fd5b50600436106102955760003560e01c80636fa3b20b11610167578063c13cf59a116100ce578063e6cbd82311610087578063e6cbd82314610875578063e985e9c514610891578063f39346f3146108c1578063f487c602146108f1578063f8e93ef91461090d578063fe210f691461092957610295565b8063c13cf59a1461078d578063c87b56dd146107ab578063cb44211e146107db578063cfbd900f146107f7578063d37f4acf14610815578063dc8636d51461084557610295565b80638b01b3e7116101205780638b01b3e7146106bb57806395d89b41146106d7578063a22cb465146106f5578063ae242ac314610711578063b4d59d2714610741578063b88d4fde1461077157610295565b80636fa3b20b146105f957806370a082311461061557806379a9e8eb146106455780637a844d65146106635780637cab5e8c146106815780638a62462e1461069d57610295565b8063323c635a1161020b5780634f6ccce7116101c45780634f6ccce7146104eb57806350b447121461051b57806354f7a0e61461054d5780636352211e1461057d57806365e8d7de146105ad5780636d1884e0146105c957610295565b8063323c635a14610429578063331b27631461044757806333e0a5ac1461047757806342842e0e1461049557806349f80c00146104b15780634a17bbde146104cd57610295565b80630b7914301161025d5780630b7914301461035257806318160ddd1461038357806319717d54146103a157806321c63a47146103bf57806323b872dd146103dd5780632f745c59146103f957610295565b806301ffc9a71461029a57806306fdde03146102ca578063081812fc146102e8578063089cdd0c14610318578063095ea7b314610336575b600080fd5b6102b460048036036102af91908101906130dd565b610959565b6040516102c19190613c4e565b60405180910390f35b6102d26109c0565b6040516102df9190613c69565b60405180910390f35b61030260048036036102fd919081019061312f565b610a62565b60405161030f9190613af7565b60405180910390f35b610320610ae7565b60405161032d9190613f6b565b60405180910390f35b610350600480360361034b919081019061300c565b610aed565b005b61036c6004803603610367919081019061312f565b610c9a565b60405161037a929190613bd3565b60405180910390f35b61038b610cde565b6040516103989190613f6b565b60405180910390f35b6103a9610ceb565b6040516103b69190613f6b565b60405180910390f35b6103c7610cf1565b6040516103d49190613f6b565b60405180910390f35b6103f760048036036103f29190810190612f06565b610cfb565b005b610413600480360361040e919081019061300c565b610d54565b6040516104209190613f6b565b60405180910390f35b610431610dfd565b60405161043e9190613f6b565b60405180910390f35b610461600480360361045c9190810190612e3a565b610e07565b60405161046e9190613c4e565b60405180910390f35b61047f610e5d565b60405161048c9190613f6b565b60405180910390f35b6104af60048036036104aa9190810190612f06565b610e63565b005b6104cb60048036036104c6919081019061300c565b610eae565b005b6104d561100e565b6040516104e29190613f6b565b60405180910390f35b6105056004803603610500919081019061312f565b611018565b6040516105129190613f6b565b60405180910390f35b6105356004803603610530919081019061312f565b611082565b60405161054493929190613f86565b60405180910390f35b6105676004803603610562919081019061312f565b6110ac565b6040516105749190613af7565b60405180910390f35b6105976004803603610592919081019061312f565b6110df565b6040516105a49190613af7565b60405180910390f35b6105c760048036036105c2919081019061300c565b611191565b005b6105e360048036036105de919081019061312f565b611305565b6040516105f09190613f6b565b60405180910390f35b610613600480360361060e919081019061300c565b611325565b005b61062f600480360361062a9190810190612e3a565b61150f565b60405161063c9190613f6b565b60405180910390f35b61064d6115ce565b60405161065a9190613af7565b60405180910390f35b61066b6115f4565b6040516106789190613f6b565b60405180910390f35b61069b60048036036106969190810190612e3a565b6115fe565b005b6106a56116e9565b6040516106b29190613af7565b60405180910390f35b6106d560048036036106d09190810190612f06565b611713565b005b6106df611824565b6040516106ec9190613c69565b60405180910390f35b61070f600480360361070a9190810190612fd0565b6118c6565b005b61072b6004803603610726919081019061312f565b611a32565b6040516107389190613f6b565b60405180910390f35b61075b6004803603610756919081019061312f565b611a53565b6040516107689190613af7565b60405180910390f35b61078b60048036036107869190810190612f55565b611a86565b005b610795611ae2565b6040516107a29190613af7565b60405180910390f35b6107c560048036036107c0919081019061312f565b611b08565b6040516107d29190613c69565b60405180910390f35b6107f560048036036107f09190810190612e3a565b611c05565b005b6107ff611cf8565b60405161080c9190613f6b565b60405180910390f35b61082f600480360361082a9190810190612e3a565b611cfe565b60405161083c9190613c4e565b60405180910390f35b61085f600480360361085a919081019061312f565b611d1e565b60405161086c9190613af7565b60405180910390f35b61088f600480360361088a9190810190613089565b611d5b565b005b6108ab60048036036108a69190810190612e63565b611e2f565b6040516108b89190613c4e565b60405180910390f35b6108db60048036036108d69190810190612e3a565b611ec3565b6040516108e89190613f6b565b60405180910390f35b61090b60048036036109069190810190612e9f565b611fa4565b005b61092760048036036109229190810190613048565b61201f565b005b610943600480360361093e919081019061312f565b6120f5565b6040516109509190613af7565b60405180910390f35b6000806000837bffffffffffffffffffffffffffffffffffffffffffffffffffffffff19167bffffffffffffffffffffffffffffffffffffffffffffffffffffffff1916815260200190815260200160002060009054906101000a900460ff169050919050565b606060098054600181600116156101000203166002900480601f016020809104026020016040519081016040528092919081815260200182805460018160011615610100020316600290048015610a585780601f10610a2d57610100808354040283529160200191610a58565b820191906000526020600020905b815481529060010190602001808311610a3b57829003601f168201915b5050505050905090565b6000610a6d82612132565b610aac576040517f08c379a0000000000000000000000000000000000000000000000000000000008152600401610aa390613e6b565b60405180910390fd5b6002600083815260200190815260200160002060009054906101000a900473ffffffffffffffffffffffffffffffffffffffff169050919050565b600e5481565b6000610af8826110df565b90508073ffffffffffffffffffffffffffffffffffffffff168373ffffffffffffffffffffffffffffffffffffffff161415610b69576040517f08c379a0000000000000000000000000000000000000000000000000000000008152600401610b6090613ecb565b60405180910390fd5b8073ffffffffffffffffffffffffffffffffffffffff163373ffffffffffffffffffffffffffffffffffffffff161480610ba95750610ba88133611e2f565b5b610be8576040517f08c379a0000000000000000000000000000000000000000000000000000000008152600401610bdf90613deb565b60405180910390fd5b826002600084815260200190815260200160002060006101000a81548173ffffffffffffffffffffffffffffffffffffffff021916908373ffffffffffffffffffffffffffffffffffffffff160217905550818373ffffffffffffffffffffffffffffffffffffffff168273ffffffffffffffffffffffffffffffffffffffff167f8c5be1e5ebec7d5bd14f71427d1e84f3dd0314c0f7b2291e5b200ac8c7c3b92560405160405180910390a4505050565b600c6020528060005260406000206000915090508060000160009054906101000a900473ffffffffffffffffffffffffffffffffffffffff16908060010154905082565b6000600780549050905090565b600f5481565b6000601454905090565b610d0533826121a4565b610d44576040517f08c379a0000000000000000000000000000000000000000000000000000000008152600401610d3b90613f0b565b60405180910390fd5b610d4f838383612282565b505050565b6000610d5f8361150f565b8210610da0576040517f08c379a0000000000000000000000000000000000000000000000000000000008152600401610d9790613c8b565b60405180910390fd5b600560008473ffffffffffffffffffffffffffffffffffffffff1673ffffffffffffffffffffffffffffffffffffffff1681526020019081526020016000208281548110610dea57fe5b9060005260206000200154905092915050565b6000600f54905090565b6000600d60008373ffffffffffffffffffffffffffffffffffffffff1673ffffffffffffffffffffffffffffffffffffffff16815260200190815260200160002060009054906101000a900460ff169050919050565b60185481565b610e6e8383836122a6565b7fddf252ad1be2c89b69c2b068fc378daa952ba7f163c4a11628f55a4df523b3ef838383604051610ea193929190613b9c565b60405180910390a1505050565b6000610eb9826110df565b90508073ffffffffffffffffffffffffffffffffffffffff168373ffffffffffffffffffffffffffffffffffffffff161415610f2a576040517f08c379a0000000000000000000000000000000000000000000000000000000008152600401610f2190613d6b565b60405180910390fd5b610f33826122c6565b610f72576040517f08c379a0000000000000000000000000000000000000000000000000000000008152600401610f6990613ceb565b60405180910390fd5b610f7d818484611713565b60006016600084815260200190815260200160002060006101000a81548173ffffffffffffffffffffffffffffffffffffffff021916908373ffffffffffffffffffffffffffffffffffffffff1602179055507f473143fbc5eac9f496272408e704b4ab0136ed56a4b525e3f3919ffe96ffc9358383604051611001929190613bd3565b60405180910390a1505050565b6000600e54905090565b6000611022610cde565b8210611063576040517f08c379a000000000000000000000000000000000000000000000000000000000815260040161105a90613f2b565b60405180910390fd5b6007828154811061107057fe5b90600052602060002001549050919050565b60136020528060005260406000206000915090508060000154908060010154908060020154905083565b60166020528060005260406000206000915054906101000a900473ffffffffffffffffffffffffffffffffffffffff1681565b6000806001600084815260200190815260200160002060009054906101000a900473ffffffffffffffffffffffffffffffffffffffff169050600073ffffffffffffffffffffffffffffffffffffffff168173ffffffffffffffffffffffffffffffffffffffff161415611188576040517f08c379a000000000000000000000000000000000000000000000000000000000815260040161117f90613e2b565b60405180910390fd5b80915050919050565b60405180604001604052808373ffffffffffffffffffffffffffffffffffffffff16815260200182815250600c6000600e54815260200190815260200160002060008201518160000160006101000a81548173ffffffffffffffffffffffffffffffffffffffff021916908373ffffffffffffffffffffffffffffffffffffffff160217905550602082015181600101559050508160116000600e54815260200190815260200160002060006101000a81548173ffffffffffffffffffffffffffffffffffffffff021916908373ffffffffffffffffffffffffffffffffffffffff1602179055506112c0601260008473ffffffffffffffffffffffffffffffffffffffff1673ffffffffffffffffffffffffffffffffffffffff168152602001908152602001600020612338565b6112c861234e565b7fcc9018de05b5f497ee7618d8830568d8ac2d45d0671b73d8f71c67e824122ec782826040516112f9929190613bd3565b60405180910390a15050565b6000600c6000838152602001908152602001600020600101549050919050565b6000611330826110df565b90508273ffffffffffffffffffffffffffffffffffffffff166016600084815260200190815260200160002060009054906101000a900473ffffffffffffffffffffffffffffffffffffffff1673ffffffffffffffffffffffffffffffffffffffff1614156113d4576040517f08c379a00000000000000000000000000000000000000000000000000000000081526004016113cb90613d0b565b60405180910390fd5b8073ffffffffffffffffffffffffffffffffffffffff168373ffffffffffffffffffffffffffffffffffffffff1614611442576040517f08c379a000000000000000000000000000000000000000000000000000000000815260040161143990613f4b565b60405180910390fd5b826016600084815260200190815260200160002060006101000a81548173ffffffffffffffffffffffffffffffffffffffff021916908373ffffffffffffffffffffffffffffffffffffffff160217905550601782908060018154018082558091505090600182039060005260206000200160009091929091909150555060016018600082825401925050819055507f473143fbc5eac9f496272408e704b4ab0136ed56a4b525e3f3919ffe96ffc9358383604051611502929190613bd3565b60405180910390a1505050565b60008073ffffffffffffffffffffffffffffffffffffffff168273ffffffffffffffffffffffffffffffffffffffff161415611580576040517f08c379a000000000000000000000000000000000000000000000000000000000815260040161157790613e0b565b60405180910390fd5b6115c7600360008473ffffffffffffffffffffffffffffffffffffffff1673ffffffffffffffffffffffffffffffffffffffff168152602001908152602001600020612361565b9050919050565b601560009054906101000a900473ffffffffffffffffffffffffffffffffffffffff1681565b6000601854905090565b3373ffffffffffffffffffffffffffffffffffffffff16601060009054906101000a900473ffffffffffffffffffffffffffffffffffffffff1673ffffffffffffffffffffffffffffffffffffffff161461168e576040517f08c379a000000000000000000000000000000000000000000000000000000000815260040161168590613dcb565b60405180910390fd5b6000600d60008373ffffffffffffffffffffffffffffffffffffffff1673ffffffffffffffffffffffffffffffffffffffff16815260200190815260200160002060006101000a81548160ff02191690831515021790555050565b6000601060009054906101000a900473ffffffffffffffffffffffffffffffffffffffff16905090565b8273ffffffffffffffffffffffffffffffffffffffff163373ffffffffffffffffffffffffffffffffffffffff16148061179a5750601560009054906101000a900473ffffffffffffffffffffffffffffffffffffffff1673ffffffffffffffffffffffffffffffffffffffff163373ffffffffffffffffffffffffffffffffffffffff16145b6117d9576040517f08c379a00000000000000000000000000000000000000000000000000000000081526004016117d090613f0b565b60405180910390fd5b6117e4838383612282565b7fddf252ad1be2c89b69c2b068fc378daa952ba7f163c4a11628f55a4df523b3ef83838360405161181793929190613b9c565b60405180910390a1505050565b6060600a8054600181600116156101000203166002900480601f0160208091040260200160405190810160405280929190818152602001828054600181600116156101000203166002900480156118bc5780601f10611891576101008083540402835291602001916118bc565b820191906000526020600020905b81548152906001019060200180831161189f57829003601f168201915b5050505050905090565b3373ffffffffffffffffffffffffffffffffffffffff168273ffffffffffffffffffffffffffffffffffffffff161415611935576040517f08c379a000000000000000000000000000000000000000000000000000000000815260040161192c90613d4b565b60405180910390fd5b80600460003373ffffffffffffffffffffffffffffffffffffffff1673ffffffffffffffffffffffffffffffffffffffff16815260200190815260200160002060008473ffffffffffffffffffffffffffffffffffffffff1673ffffffffffffffffffffffffffffffffffffffff16815260200190815260200160002060006101000a81548160ff0219169083151502179055508173ffffffffffffffffffffffffffffffffffffffff163373ffffffffffffffffffffffffffffffffffffffff167f17307eab39ab6107e8899845ad3d59bd9653f200f220920489ca2b5937696c3183604051611a269190613c4e565b60405180910390a35050565b60178181548110611a3f57fe5b906000526020600020016000915090505481565b60116020528060005260406000206000915054906101000a900473ffffffffffffffffffffffffffffffffffffffff1681565b611a91848484610cfb565b611a9d8484848461236f565b611adc576040517f08c379a0000000000000000000000000000000000000000000000000000000008152600401611ad390613cab565b60405180910390fd5b50505050565b601060009054906101000a900473ffffffffffffffffffffffffffffffffffffffff1681565b6060611b1382612132565b611b52576040517f08c379a0000000000000000000000000000000000000000000000000000000008152600401611b4990613eab565b60405180910390fd5b600b60008381526020019081526020016000208054600181600116156101000203166002900480601f016020809104026020016040519081016040528092919081815260200182805460018160011615610100020316600290048015611bf95780601f10611bce57610100808354040283529160200191611bf9565b820191906000526020600020905b815481529060010190602001808311611bdc57829003601f168201915b50505050509050919050565b3373ffffffffffffffffffffffffffffffffffffffff16601060009054906101000a900473ffffffffffffffffffffffffffffffffffffffff1673ffffffffffffffffffffffffffffffffffffffff1614611c95576040517f08c379a0000000000000000000000000000000000000000000000000000000008152600401611c8c90613dcb565b60405180910390fd5b6001600d60008373ffffffffffffffffffffffffffffffffffffffff1673ffffffffffffffffffffffffffffffffffffffff16815260200190815260200160002060006101000a81548160ff021916908315150217905550611cf5612486565b50565b60145481565b600d6020528060005260406000206000915054906101000a900460ff1681565b60006016600083815260200190815260200160002060009054906101000a900473ffffffffffffffffffffffffffffffffffffffff169050919050565b60008090505b8251811015611df157611d7633601454612499565b6040518060600160405280838152602001848381518110611d9357fe5b60200260200101518152602001601454815250601360006014548152602001908152602001600020600082015181600001556020820151816001015560408201518160020155905050611de46124ba565b8080600101915050611d61565b507f98eb5fd42e6d333c591308604737d30f2c96870472acc7780474518889920c818282604051611e23929190613c1e565b60405180910390a15050565b6000600460008473ffffffffffffffffffffffffffffffffffffffff1673ffffffffffffffffffffffffffffffffffffffff16815260200190815260200160002060008373ffffffffffffffffffffffffffffffffffffffff1673ffffffffffffffffffffffffffffffffffffffff16815260200190815260200160002060009054906101000a900460ff16905092915050565b60008073ffffffffffffffffffffffffffffffffffffffff16601060009054906101000a900473ffffffffffffffffffffffffffffffffffffffff1673ffffffffffffffffffffffffffffffffffffffff161415611f56576040517f08c379a0000000000000000000000000000000000000000000000000000000008152600401611f4d90613eeb565b60405180910390fd5b611f9d601260008473ffffffffffffffffffffffffffffffffffffffff1673ffffffffffffffffffffffffffffffffffffffff168152602001908152602001600020612361565b9050919050565b60008090505b8151811015611fde57611fd18484848481518110611fc457fe5b60200260200101516122a6565b8080600101915050611faa565b507f944ff1e3859e71e7e76a8e77f2f9871b1ea12bc168118ebd27618c7095b31d7383838360405161201293929190613b5e565b60405180910390a1505050565b60008090505b81518110156120ba5761203a33601454612499565b60405180606001604052806001600e5403815260200183838151811061205c57fe5b602002602001015181526020016014548152506013600060145481526020019081526020016000206000820151816000015560208201518160010155604082015181600201559050506120ad6124ba565b8080600101915050612025565b507f927541f9fce6c39dc7a324f76bea83f1724f83cc542876a70b34ef6fdc31324d816040516120ea9190613bfc565b60405180910390a150565b60006011600083815260200190815260200160002060009054906101000a900473ffffffffffffffffffffffffffffffffffffffff169050919050565b6000806001600084815260200190815260200160002060009054906101000a900473ffffffffffffffffffffffffffffffffffffffff169050600073ffffffffffffffffffffffffffffffffffffffff168173ffffffffffffffffffffffffffffffffffffffff161415915050919050565b60006121af82612132565b6121ee576040517f08c379a00000000000000000000000000000000000000000000000000000000081526004016121e590613dab565b60405180910390fd5b60006121f9836110df565b90508073ffffffffffffffffffffffffffffffffffffffff168473ffffffffffffffffffffffffffffffffffffffff16148061226857508373ffffffffffffffffffffffffffffffffffffffff1661225084610a62565b73ffffffffffffffffffffffffffffffffffffffff16145b8061227957506122788185611e2f565b5b91505092915050565b61228d8383836124cd565b61229783826126fc565b6122a1828261289a565b505050565b6122c183838360405180602001604052806000815250611a86565b505050565b6000806016600084815260200190815260200160002060009054906101000a900473ffffffffffffffffffffffffffffffffffffffff169050600073ffffffffffffffffffffffffffffffffffffffff168173ffffffffffffffffffffffffffffffffffffffff161415915050919050565b6001816000016000828254019250508190555050565b6001600e60008282540192505081905550565b600081600001549050919050565b60006123908473ffffffffffffffffffffffffffffffffffffffff16612961565b61239d576001905061247e565b60008473ffffffffffffffffffffffffffffffffffffffff1663150b7a02338887876040518563ffffffff1660e01b81526004016123de9493929190613b12565b602060405180830381600087803b1580156123f857600080fd5b505af115801561240c573d6000803e3d6000fd5b505050506040513d601f19601f820116820180604052506124309190810190613106565b905063150b7a0260e01b7bffffffffffffffffffffffffffffffffffffffffffffffffffffffff1916817bffffffffffffffffffffffffffffffffffffffffffffffffffffffff1916149150505b949350505050565b6001600f60008282540192505081905550565b6124a38282612974565b6124ad828261289a565b6124b681612b26565b5050565b6001601460008282540192505081905550565b8273ffffffffffffffffffffffffffffffffffffffff166124ed826110df565b73ffffffffffffffffffffffffffffffffffffffff1614612543576040517f08c379a000000000000000000000000000000000000000000000000000000000815260040161253a90613e8b565b60405180910390fd5b600073ffffffffffffffffffffffffffffffffffffffff168273ffffffffffffffffffffffffffffffffffffffff1614156125b3576040517f08c379a00000000000000000000000000000000000000000000000000000000081526004016125aa90613d2b565b60405180910390fd5b6125bc81612b72565b612603600360008573ffffffffffffffffffffffffffffffffffffffff1673ffffffffffffffffffffffffffffffffffffffff168152602001908152602001600020612c30565b61264a600360008473ffffffffffffffffffffffffffffffffffffffff1673ffffffffffffffffffffffffffffffffffffffff168152602001908152602001600020612338565b816001600083815260200190815260200160002060006101000a81548173ffffffffffffffffffffffffffffffffffffffff021916908373ffffffffffffffffffffffffffffffffffffffff160217905550808273ffffffffffffffffffffffffffffffffffffffff168473ffffffffffffffffffffffffffffffffffffffff167fddf252ad1be2c89b69c2b068fc378daa952ba7f163c4a11628f55a4df523b3ef60405160405180910390a4505050565b60006127546001600560008673ffffffffffffffffffffffffffffffffffffffff1673ffffffffffffffffffffffffffffffffffffffff16815260200190815260200160002080549050612c5390919063ffffffff16565b9050600060066000848152602001908152602001600020549050818114612841576000600560008673ffffffffffffffffffffffffffffffffffffffff1673ffffffffffffffffffffffffffffffffffffffff16815260200190815260200160002083815481106127c157fe5b9060005260206000200154905080600560008773ffffffffffffffffffffffffffffffffffffffff1673ffffffffffffffffffffffffffffffffffffffff168152602001908152602001600020838154811061281957fe5b9060005260206000200181905550816006600083815260200190815260200160002081905550505b600560008573ffffffffffffffffffffffffffffffffffffffff1673ffffffffffffffffffffffffffffffffffffffff1681526020019081526020016000208054809190600190036128939190612ca9565b5050505050565b600560008373ffffffffffffffffffffffffffffffffffffffff1673ffffffffffffffffffffffffffffffffffffffff168152602001908152602001600020805490506006600083815260200190815260200160002081905550600560008373ffffffffffffffffffffffffffffffffffffffff1673ffffffffffffffffffffffffffffffffffffffff1681526020019081526020016000208190806001815401808255809150509060018203906000526020600020016000909192909190915055505050565b600080823b905060008111915050919050565b600073ffffffffffffffffffffffffffffffffffffffff168273ffffffffffffffffffffffffffffffffffffffff1614156129e4576040517f08c379a00000000000000000000000000000000000000000000000000000000081526004016129db90613e4b565b60405180910390fd5b6129ed81612132565b15612a2d576040517f08c379a0000000000000000000000000000000000000000000000000000000008152600401612a2490613ccb565b60405180910390fd5b816001600083815260200190815260200160002060006101000a81548173ffffffffffffffffffffffffffffffffffffffff021916908373ffffffffffffffffffffffffffffffffffffffff160217905550612ac6600360008473ffffffffffffffffffffffffffffffffffffffff1673ffffffffffffffffffffffffffffffffffffffff168152602001908152602001600020612338565b808273ffffffffffffffffffffffffffffffffffffffff16600073ffffffffffffffffffffffffffffffffffffffff167fddf252ad1be2c89b69c2b068fc378daa952ba7f163c4a11628f55a4df523b3ef60405160405180910390a45050565b6007805490506008600083815260200190815260200160002081905550600781908060018154018082558091505090600182039060005260206000200160009091929091909150555050565b600073ffffffffffffffffffffffffffffffffffffffff166002600083815260200190815260200160002060009054906101000a900473ffffffffffffffffffffffffffffffffffffffff1673ffffffffffffffffffffffffffffffffffffffff1614612c2d5760006002600083815260200190815260200160002060006101000a81548173ffffffffffffffffffffffffffffffffffffffff021916908373ffffffffffffffffffffffffffffffffffffffff1602179055505b50565b612c4860018260000154612c5390919063ffffffff16565b816000018190555050565b600082821115612c98576040517f08c379a0000000000000000000000000000000000000000000000000000000008152600401612c8f90613d8b565b60405180910390fd5b600082840390508091505092915050565b815481835581811115612cd057818360005260206000209182019101612ccf9190612cd5565b5b505050565b612cf791905b80821115612cf3576000816000905550600101612cdb565b5090565b90565b600081359050612d09816141ac565b92915050565b600082601f830112612d2057600080fd5b8135612d33612d2e82613fea565b613fbd565b91508181835260208401935060208101905083856020840282011115612d5857600080fd5b60005b83811015612d885781612d6e8882612e25565b845260208401935060208301925050600181019050612d5b565b5050505092915050565b600081359050612da1816141c3565b92915050565b600081359050612db6816141da565b92915050565b600081519050612dcb816141da565b92915050565b600082601f830112612de257600080fd5b8135612df5612df082614012565b613fbd565b91508082526020830160208301858383011115612e1157600080fd5b612e1c838284614159565b50505092915050565b600081359050612e34816141f1565b92915050565b600060208284031215612e4c57600080fd5b6000612e5a84828501612cfa565b91505092915050565b60008060408385031215612e7657600080fd5b6000612e8485828601612cfa565b9250506020612e9585828601612cfa565b9150509250929050565b600080600060608486031215612eb457600080fd5b6000612ec286828701612cfa565b9350506020612ed386828701612cfa565b925050604084013567ffffffffffffffff811115612ef057600080fd5b612efc86828701612d0f565b9150509250925092565b600080600060608486031215612f1b57600080fd5b6000612f2986828701612cfa565b9350506020612f3a86828701612cfa565b9250506040612f4b86828701612e25565b9150509250925092565b60008060008060808587031215612f6b57600080fd5b6000612f7987828801612cfa565b9450506020612f8a87828801612cfa565b9350506040612f9b87828801612e25565b925050606085013567ffffffffffffffff811115612fb857600080fd5b612fc487828801612dd1565b91505092959194509250565b60008060408385031215612fe357600080fd5b6000612ff185828601612cfa565b925050602061300285828601612d92565b9150509250929050565b6000806040838503121561301f57600080fd5b600061302d85828601612cfa565b925050602061303e85828601612e25565b9150509250929050565b60006020828403121561305a57600080fd5b600082013567ffffffffffffffff81111561307457600080fd5b61308084828501612d0f565b91505092915050565b6000806040838503121561309c57600080fd5b600083013567ffffffffffffffff8111156130b657600080fd5b6130c285828601612d0f565b92505060206130d385828601612e25565b9150509250929050565b6000602082840312156130ef57600080fd5b60006130fd84828501612da7565b91505092915050565b60006020828403121561311857600080fd5b600061312684828501612dbc565b91505092915050565b60006020828403121561314157600080fd5b600061314f84828501612e25565b91505092915050565b60006131648383613ad9565b60208301905092915050565b61317981614123565b82525050565b613188816140af565b82525050565b60006131998261404e565b6131a3818561407c565b93506131ae8361403e565b8060005b838110156131df5781516131c68882613158565b97506131d18361406f565b9250506001810190506131b2565b5085935050505092915050565b6131f5816140c1565b82525050565b600061320682614059565b613210818561408d565b9350613220818560208601614168565b6132298161419b565b840191505092915050565b600061323f82614064565b613249818561409e565b9350613259818560208601614168565b6132628161419b565b840191505092915050565b600061327a602b8361409e565b91507f455243373231456e756d657261626c653a206f776e657220696e646578206f7560008301527f74206f6620626f756e64730000000000000000000000000000000000000000006020830152604082019050919050565b60006132e060328361409e565b91507f4552433732313a207472616e7366657220746f206e6f6e20455243373231526560008301527f63656976657220696d706c656d656e74657200000000000000000000000000006020830152604082019050919050565b6000613346601c8361409e565b91507f4552433732313a20746f6b656e20616c7265616479206d696e746564000000006000830152602082019050919050565b600061338660268361409e565b91507f5469636b6574206973206e6f742073656c6c206f6e20746865206d6172656b6560008301527f74706c61636500000000000000000000000000000000000000000000000000006020830152604082019050919050565b60006133ec60218361409e565b91507f5469636b657420616c7265616479206f6e20746865206d61726b6574706c616360008301527f65000000000000000000000000000000000000000000000000000000000000006020830152604082019050919050565b600061345260248361409e565b91507f4552433732313a207472616e7366657220746f20746865207a65726f2061646460008301527f72657373000000000000000000000000000000000000000000000000000000006020830152604082019050919050565b60006134b860198361409e565b91507f4552433732313a20617070726f766520746f2063616c6c6572000000000000006000830152602082019050919050565b60006134f860258361409e565b91507f4552433732313a206275796572206973206e6f7420746865207469636b65742060008301527f6f776e65720000000000000000000000000000000000000000000000000000006020830152604082019050919050565b600061355e601e8361409e565b91507f536166654d6174683a207375627472616374696f6e206f766572666c6f7700006000830152602082019050919050565b600061359e602c8361409e565b91507f4552433732313a206f70657261746f7220717565727920666f72206e6f6e657860008301527f697374656e7420746f6b656e00000000000000000000000000000000000000006020830152604082019050919050565b600061360460158361409e565b91507f73656e646572206973206e6f742061206f776e657200000000000000000000006000830152602082019050919050565b600061364460388361409e565b91507f4552433732313a20617070726f76652063616c6c6572206973206e6f74206f7760008301527f6e6572206e6f7220617070726f76656420666f7220616c6c00000000000000006020830152604082019050919050565b60006136aa602a8361409e565b91507f4552433732313a2062616c616e636520717565727920666f7220746865207a6560008301527f726f2061646472657373000000000000000000000000000000000000000000006020830152604082019050919050565b600061371060298361409e565b91507f4552433732313a206f776e657220717565727920666f72206e6f6e657869737460008301527f656e7420746f6b656e00000000000000000000000000000000000000000000006020830152604082019050919050565b600061377660208361409e565b91507f4552433732313a206d696e7420746f20746865207a65726f20616464726573736000830152602082019050919050565b60006137b6602c8361409e565b91507f4552433732313a20617070726f76656420717565727920666f72206e6f6e657860008301527f697374656e7420746f6b656e00000000000000000000000000000000000000006020830152604082019050919050565b600061381c60298361409e565b91507f4552433732313a207472616e73666572206f6620746f6b656e2074686174206960008301527f73206e6f74206f776e00000000000000000000000000000000000000000000006020830152604082019050919050565b6000613882602f8361409e565b91507f4552433732314d657461646174613a2055524920717565727920666f72206e6f60008301527f6e6578697374656e7420746f6b656e00000000000000000000000000000000006020830152604082019050919050565b60006138e860218361409e565b91507f4552433732313a20617070726f76616c20746f2063757272656e74206f776e6560008301527f72000000000000000000000000000000000000000000000000000000000000006020830152604082019050919050565b600061394e60298361409e565b91507f4576656e743a2062616c616e636520717565727920666f7220746865207a657260008301527f6f206164647265737300000000000000000000000000000000000000000000006020830152604082019050919050565b60006139b460318361409e565b91507f4552433732313a207472616e736665722063616c6c6572206973206e6f74206f60008301527f776e6572206e6f7220617070726f7665640000000000000000000000000000006020830152604082019050919050565b6000613a1a602c8361409e565b91507f455243373231456e756d657261626c653a20676c6f62616c20696e646578206f60008301527f7574206f6620626f756e647300000000000000000000000000000000000000006020830152604082019050919050565b6000613a8060268361409e565b91507f4552433732313a2073656c6c6572206973206e6f7420746865207469636b657460008301527f206f776e657200000000000000000000000000000000000000000000000000006020830152604082019050919050565b613ae281614119565b82525050565b613af181614119565b82525050565b6000602082019050613b0c600083018461317f565b92915050565b6000608082019050613b276000830187613170565b613b34602083018661317f565b613b416040830185613ae8565b8181036060830152613b5381846131fb565b905095945050505050565b6000606082019050613b73600083018661317f565b613b80602083018561317f565b8181036040830152613b92818461318e565b9050949350505050565b6000606082019050613bb1600083018661317f565b613bbe602083018561317f565b613bcb6040830184613ae8565b949350505050565b6000604082019050613be8600083018561317f565b613bf56020830184613ae8565b9392505050565b60006020820190508181036000830152613c16818461318e565b905092915050565b60006040820190508181036000830152613c38818561318e565b9050613c476020830184613ae8565b9392505050565b6000602082019050613c6360008301846131ec565b92915050565b60006020820190508181036000830152613c838184613234565b905092915050565b60006020820190508181036000830152613ca48161326d565b9050919050565b60006020820190508181036000830152613cc4816132d3565b9050919050565b60006020820190508181036000830152613ce481613339565b9050919050565b60006020820190508181036000830152613d0481613379565b9050919050565b60006020820190508181036000830152613d24816133df565b9050919050565b60006020820190508181036000830152613d4481613445565b9050919050565b60006020820190508181036000830152613d64816134ab565b9050919050565b60006020820190508181036000830152613d84816134eb565b9050919050565b60006020820190508181036000830152613da481613551565b9050919050565b60006020820190508181036000830152613dc481613591565b9050919050565b60006020820190508181036000830152613de4816135f7565b9050919050565b60006020820190508181036000830152613e0481613637565b9050919050565b60006020820190508181036000830152613e248161369d565b9050919050565b60006020820190508181036000830152613e4481613703565b9050919050565b60006020820190508181036000830152613e6481613769565b9050919050565b60006020820190508181036000830152613e84816137a9565b9050919050565b60006020820190508181036000830152613ea48161380f565b9050919050565b60006020820190508181036000830152613ec481613875565b9050919050565b60006020820190508181036000830152613ee4816138db565b9050919050565b60006020820190508181036000830152613f0481613941565b9050919050565b60006020820190508181036000830152613f24816139a7565b9050919050565b60006020820190508181036000830152613f4481613a0d565b9050919050565b60006020820190508181036000830152613f6481613a73565b9050919050565b6000602082019050613f806000830184613ae8565b92915050565b6000606082019050613f9b6000830186613ae8565b613fa86020830185613ae8565b613fb56040830184613ae8565b949350505050565b6000604051905081810181811067ffffffffffffffff82111715613fe057600080fd5b8060405250919050565b600067ffffffffffffffff82111561400157600080fd5b602082029050602081019050919050565b600067ffffffffffffffff82111561402957600080fd5b601f19601f8301169050602081019050919050565b6000819050602082019050919050565b600081519050919050565b600081519050919050565b600081519050919050565b6000602082019050919050565b600082825260208201905092915050565b600082825260208201905092915050565b600082825260208201905092915050565b60006140ba826140f9565b9050919050565b60008115159050919050565b60007fffffffff0000000000000000000000000000000000000000000000000000000082169050919050565b600073ffffffffffffffffffffffffffffffffffffffff82169050919050565b6000819050919050565b600061412e82614135565b9050919050565b600061414082614147565b9050919050565b6000614152826140f9565b9050919050565b82818337600083830152505050565b60005b8381101561418657808201518184015260208101905061416b565b83811115614195576000848401525b50505050565b6000601f19601f8301169050919050565b6141b5816140af565b81146141c057600080fd5b50565b6141cc816140c1565b81146141d757600080fd5b50565b6141e3816140cd565b81146141ee57600080fd5b50565b6141fa81614119565b811461420557600080fd5b5056fea365627a7a72315820a542d3244fba82e269e43dc388214341859547d184ccc73ab32872b29cd174566c6578706572696d656e74616cf564736f6c63430005100040",
  "source": "pragma solidity ^0.5.16;\npragma experimental ABIEncoderV2;\n\nimport \"./ERC721Full.sol\";\nimport \"./Event.sol\";\n\ncontract Ticket is ERC721Full, Event {\n    mapping(uint256 => Ticket) public tickets;\n    // mapping(string => bool) _ticketExists;\n    uint256 public ticketCount = 0;\n    address public ticketContractOwner;\n\n    // mapping(uint256 => address) public ticketApprovals;\n    mapping(uint256 => address) public marketplaceTickets;\n    uint256[] public marketplaceTicketList;\n    uint256 public marketplaceTicketId;\n\n    constructor() public ERC721Full(\"Ticket\", \"TCK\") {\n        ticketContractOwner = msg.sender;\n    }\n\n    event CreateTicketsByEvent(uint256[] _tickets, uint256 _eventId);\n    event CreateTickets(uint256[] _tickets);\n    event Transfer(address from, address to, uint256 tokenId);\n    event TransferMulti(address from, address to, uint256[] tokenId);\n    event Trade(address target, uint256 tokenId);\n\n    struct Ticket {\n        uint256 eventId;\n        uint256 ticket_id;\n        uint256 ticketId;\n    }\n\n    function incrementCount() internal {\n        ticketCount += 1;\n    }\n\n    function getTicketCount() public view returns (uint256) {\n        return ticketCount;\n    }\n\n    function getMarketplaceTicketId() public view returns (uint256) {\n        return marketplaceTicketId;\n    }\n\n    function mint(uint256[] memory _tickets) public {\n        for (uint256 index = 0; index < _tickets.length; index++) {\n            _mint(msg.sender, ticketCount);\n            tickets[ticketCount] = Ticket(\n                eventId - 1,\n                _tickets[index],\n                ticketCount\n            );\n            incrementCount();\n        }\n        // require(!_ticketExists[_ticket]);\n        emit CreateTickets(_tickets);\n        // _ticketExists[_ticket] = true;\n    }\n\n    function mintByEvent(uint256[] memory _tickets, uint256 _eventId) public {\n        for (uint256 index = 0; index < _tickets.length; index++) {\n            _mint(msg.sender, ticketCount);\n            tickets[ticketCount] = Ticket(\n                _eventId,\n                _tickets[index],\n                ticketCount\n            );\n            incrementCount();\n        }\n\n        emit CreateTicketsByEvent(_tickets, _eventId);\n    }\n\n    function multiTransferFrom(\n        address _from,\n        address _to,\n        uint256[] memory _tokenIds\n    ) public {\n        for (uint256 index = 0; index < _tokenIds.length; index++) {\n            super.safeTransferFrom(_from, _to, _tokenIds[index]);\n        }\n\n        emit TransferMulti(_from, _to, _tokenIds);\n    }\n\n    function safeTransferFrom(\n        address _from,\n        address _to,\n        uint256 _tokenId\n    ) public {\n        super.safeTransferFrom(_from, _to, _tokenId);\n\n        emit Transfer(_from, _to, _tokenId);\n    }\n    function sellTicketsOnMarketplace(address seller, uint256 ticketId) public {\n        address owner = super.ownerOf(ticketId);\n        require(marketplaceTickets[ticketId] != seller, \"Ticket already on the marketplace\");\n        require(seller == owner, \"ERC721: seller is not the ticket owner\");\n        marketplaceTickets[ticketId] = seller;\n        marketplaceTicketList.push(ticketId);\n        marketplaceTicketId += 1;\n        emit Trade(seller, ticketId);\n    }\n\n    function buyTicketOnMarketplace(address buyer, uint256 ticketId) public {\n        address owner = ownerOf(ticketId);\n        require(buyer != owner, \"ERC721: buyer is not the ticket owner\");\n        require(_existMarketplaceTicket(ticketId), \"Ticket is not sell on the mareketplace\");\n        transferFromByContractOwner(owner, buyer, ticketId);\n        marketplaceTickets[ticketId] = address(0);\n        emit Trade(buyer, ticketId);\n    }\n\n    function _existMarketplaceTicket(uint256 ticketId) internal view returns (bool) {\n        address owner = marketplaceTickets[ticketId];\n        return owner != address(0);\n    }\n\n    function transferFromByContractOwner(address from, address to, uint256 tokenId) public {\n        require(msg.sender == from || msg.sender == ticketContractOwner, \"ERC721: transfer caller is not owner nor approved\");\n\n        super._transferFrom(from, to, tokenId);\n        emit Transfer(from, to, tokenId);\n    }\n\n    \n\n    function getTicketOnMarketplace(uint256 ticketId) public view returns (address) {\n        return marketplaceTickets[ticketId];\n    }\n\n    // function approveByOwner(address to, uint256 ticketId) public {\n    //     // address owner = ownerOf(ticketId);\n    //     // require(to != owner, \"ERC721: approval to current owner\");\n    //     // require(\n    //     //     to == ticketContractOwner,\n    //     //     \"ERC721: approve caller is not contract owner\"\n    //     // );\n    //     require(\n    //       ticketApprovals[ticketId] == to, \"exist\"\n    //     );\n    //     ticketApprovals[ticketId] = to;\n    //     // emit Approval(owner, ticketContractOwner, ticketId);\n    // }\n\n    // function getTicketApproved(uint256 ticketId) public view returns (address) {\n    //     // require(\n    //     //     _exists(ticketId),\n    //     //     \"ERC721: approved query for nonexistent token\"\n    //     // );\n\n    //     return ticketApprovals[ticketId];\n    // }\n}\n",
  "sourcePath": "/Users/timcheng/personal/fyp/smart-ticket-api/src/admin/client/src/smart-contract/contracts/Ticket.sol",
  "compiler": {
    "name": "solc",
    "version": "0.5.16+commit.9c3226ce.Emscripten.clang"
  },
  "schemaVersion": "3.3.2",
  "updatedAt": "2021-04-10T20:06:37.981Z",
  "networkType": "ethereum",
  "devdoc": {
    "methods": {
      "approve(address,uint256)": {
        "details": "Approves another address to transfer the given token ID The zero address indicates there is no approved address. There can only be one approved address per token at a given time. Can only be called by the token owner or an approved operator.",
        "params": {
          "to": "address to be approved for the given token ID",
          "tokenId": "uint256 ID of the token to be approved"
        }
      },
      "balanceOf(address)": {
        "details": "Gets the balance of the specified address.",
        "params": {
          "owner": "address to query the balance of"
        },
        "return": "uint256 representing the amount owned by the passed address"
      },
      "getApproved(uint256)": {
        "details": "Gets the approved address for a token ID, or zero if no address set Reverts if the token ID does not exist.",
        "params": {
          "tokenId": "uint256 ID of the token to query the approval of"
        },
        "return": "address currently approved for the given token ID"
      },
      "isApprovedForAll(address,address)": {
        "details": "Tells whether an operator is approved by a given owner.",
        "params": {
          "operator": "operator address which you want to query the approval of",
          "owner": "owner address which you want to query the approval of"
        },
        "return": "bool whether the given operator is approved by the given owner"
      },
      "name()": {
        "details": "Gets the token name.",
        "return": "string representing the token name"
      },
      "ownerOf(uint256)": {
        "details": "Gets the owner of the specified token ID.",
        "params": {
          "tokenId": "uint256 ID of the token to query the owner of"
        },
        "return": "address currently marked as the owner of the given token ID"
      },
      "safeTransferFrom(address,address,uint256,bytes)": {
        "details": "Safely transfers the ownership of a given token ID to another address If the target address is a contract, it must implement `onERC721Received`, which is called upon a safe transfer, and return the magic value `bytes4(keccak256(\"onERC721Received(address,address,uint256,bytes)\"))`; otherwise, the transfer is reverted. Requires the msg.sender to be the owner, approved, or operator",
        "params": {
          "_data": "bytes data to send along with a safe transfer check",
          "from": "current owner of the token",
          "to": "address to receive the ownership of the given token ID",
          "tokenId": "uint256 ID of the token to be transferred"
        }
      },
      "setApprovalForAll(address,bool)": {
        "details": "Sets or unsets the approval of a given operator An operator is allowed to transfer all tokens of the sender on their behalf.",
        "params": {
          "approved": "representing the status of the approval to be set",
          "to": "operator address to set the approval"
        }
      },
      "supportsInterface(bytes4)": {
        "details": "See `IERC165.supportsInterface`.     * Time complexity O(1), guaranteed to always use less than 30 000 gas."
      },
      "symbol()": {
        "details": "Gets the token symbol.",
        "return": "string representing the token symbol"
      },
      "tokenByIndex(uint256)": {
        "details": "Gets the token ID at a given index of all the tokens in this contract Reverts if the index is greater or equal to the total number of tokens.",
        "params": {
          "index": "uint256 representing the index to be accessed of the tokens list"
        },
        "return": "uint256 token ID at the given index of the tokens list"
      },
      "tokenOfOwnerByIndex(address,uint256)": {
        "details": "Gets the token ID at a given index of the tokens list of the requested owner.",
        "params": {
          "index": "uint256 representing the index to be accessed of the requested tokens list",
          "owner": "address owning the tokens list to be accessed"
        },
        "return": "uint256 token ID at the given index of the tokens list owned by the requested address"
      },
      "tokenURI(uint256)": {
        "details": "Returns an URI for a given token ID. Throws if the token ID does not exist. May return an empty string.",
        "params": {
          "tokenId": "uint256 ID of the token to query"
        }
      },
      "totalSupply()": {
        "details": "Gets the total amount of tokens stored by the contract.",
        "return": "uint256 representing the total amount of tokens"
      },
      "transferFrom(address,address,uint256)": {
        "details": "Transfers the ownership of a given token ID to another address. Usage of this method is discouraged, use `safeTransferFrom` whenever possible. Requires the msg.sender to be the owner, approved, or operator.",
        "params": {
          "from": "current owner of the token",
          "to": "address to receive the ownership of the given token ID",
          "tokenId": "uint256 ID of the token to be transferred"
        }
      }
    }
  },
  "userdoc": {
    "methods": {}
  }
}